{"contracts/jobBoard.sol":{"JobBoard":{"abi":[{"anonymous":false,"inputs":[{"indexed":true,"internalType":"uint256","name":"jobId","type":"uint256"},{"indexed":true,"internalType":"address","name":"employer","type":"address"},{"indexed":true,"internalType":"address","name":"applicant","type":"address"},{"indexed":false,"internalType":"uint256","name":"paymentAmount","type":"uint256"}],"name":"JobAccepted","type":"event"},{"anonymous":false,"inputs":[{"indexed":true,"internalType":"uint256","name":"jobId","type":"uint256"},{"indexed":true,"internalType":"address","name":"applicant","type":"address"},{"indexed":false,"internalType":"string","name":"coverLetter","type":"string"}],"name":"JobApplied","type":"event"},{"anonymous":false,"inputs":[{"indexed":true,"internalType":"uint256","name":"jobId","type":"uint256"},{"indexed":true,"internalType":"address","name":"employer","type":"address"},{"indexed":false,"internalType":"string","name":"title","type":"string"},{"indexed":false,"internalType":"uint256","name":"paymentAmount","type":"uint256"}],"name":"JobPosted","type":"event"},{"inputs":[{"internalType":"uint256","name":"jobId","type":"uint256"},{"internalType":"uint256","name":"applicationIndex","type":"uint256"}],"name":"acceptApplication","outputs":[],"stateMutability":"payable","type":"function"},{"inputs":[],"name":"applicationCount","outputs":[{"internalType":"uint256","name":"","type":"uint256"}],"stateMutability":"view","type":"function"},{"inputs":[{"internalType":"uint256","name":"","type":"uint256"},{"internalType":"uint256","name":"","type":"uint256"}],"name":"applications","outputs":[{"internalType":"address","name":"applicant","type":"address"},{"internalType":"uint256","name":"jobId","type":"uint256"},{"internalType":"string","name":"coverLetter","type":"string"},{"internalType":"bool","name":"isAccepted","type":"bool"}],"stateMutability":"view","type":"function"},{"inputs":[{"internalType":"uint256","name":"jobId","type":"uint256"},{"internalType":"string","name":"coverLetter","type":"string"}],"name":"applyForJob","outputs":[],"stateMutability":"nonpayable","type":"function"},{"inputs":[{"internalType":"uint256","name":"jobId","type":"uint256"}],"name":"deactivateJob","outputs":[],"stateMutability":"nonpayable","type":"function"},{"inputs":[],"name":"jobCount","outputs":[{"internalType":"uint256","name":"","type":"uint256"}],"stateMutability":"view","type":"function"},{"inputs":[{"internalType":"uint256","name":"","type":"uint256"}],"name":"jobs","outputs":[{"internalType":"uint256","name":"id","type":"uint256"},{"internalType":"address","name":"employer","type":"address"},{"internalType":"string","name":"title","type":"string"},{"internalType":"string","name":"description","type":"string"},{"internalType":"uint256","name":"paymentAmount","type":"uint256"},{"internalType":"bool","name":"isActive","type":"bool"}],"stateMutability":"view","type":"function"},{"inputs":[{"internalType":"string","name":"title","type":"string"},{"internalType":"string","name":"description","type":"string"},{"internalType":"uint256","name":"paymentAmount","type":"uint256"}],"name":"postJob","outputs":[],"stateMutability":"nonpayable","type":"function"}],"evm":{"bytecode":{"linkReferences":{},"object":"6080604052600080556000600155348015601857600080fd5b506115aa806100286000396000f3fe60806040526004361061007b5760003560e01c80636c09a5e31161004e5780636c09a5e31461013f5780637a870b631461016857806383f67f6e146101a8578063e2aad4a0146101c45761007b565b8063180aedf314610080578063366d2a4b146100c25780634c5d8a0f146100eb5780635c3b9c4a14610116575b600080fd5b34801561008c57600080fd5b506100a760048036038101906100a29190610b48565b6101ef565b6040516100b996959493929190610c70565b60405180910390f35b3480156100ce57600080fd5b506100e960048036038101906100e49190610b48565b610368565b005b3480156100f757600080fd5b5061010061043e565b60405161010d9190610cdf565b60405180910390f35b34801561012257600080fd5b5061013d60048036038101906101389190610e2f565b610444565b005b34801561014b57600080fd5b5061016660048036038101906101619190610eba565b6105b9565b005b34801561017457600080fd5b5061018f600480360381019061018a9190610f16565b610786565b60405161019f9493929190610f56565b60405180910390f35b6101c260048036038101906101bd9190610f16565b610888565b005b3480156101d057600080fd5b506101d9610af8565b6040516101e69190610cdf565b60405180910390f35b60026020528060005260406000206000915090508060000154908060010160009054906101000a900473ffffffffffffffffffffffffffffffffffffffff169080600201805461023e90610fd1565b80601f016020809104026020016040519081016040528092919081815260200182805461026a90610fd1565b80156102b75780601f1061028c576101008083540402835291602001916102b7565b820191906000526020600020905b81548152906001019060200180831161029a57829003601f168201915b5050505050908060030180546102cc90610fd1565b80601f01602080910402602001604051908101604052809291908181526020018280546102f890610fd1565b80156103455780601f1061031a57610100808354040283529160200191610345565b820191906000526020600020905b81548152906001019060200180831161032857829003601f168201915b5050505050908060040154908060050160009054906101000a900460ff16905086565b6002600082815260200190815260200160002060010160009054906101000a900473ffffffffffffffffffffffffffffffffffffffff1673ffffffffffffffffffffffffffffffffffffffff163373ffffffffffffffffffffffffffffffffffffffff161461040c576040517f08c379a000000000000000000000000000000000000000000000000000000000815260040161040390611074565b60405180910390fd5b60006002600083815260200190815260200160002060050160006101000a81548160ff02191690831515021790555050565b60005481565b600080815480929190610456906110c3565b91905055506040518060c0016040528060005481526020013373ffffffffffffffffffffffffffffffffffffffff1681526020018481526020018381526020018281526020016001151581525060026000805481526020019081526020016000206000820151816000015560208201518160010160006101000a81548173ffffffffffffffffffffffffffffffffffffffff021916908373ffffffffffffffffffffffffffffffffffffffff160217905550604082015181600201908161051d91906112b7565b50606082015181600301908161053391906112b7565b506080820151816004015560a08201518160050160006101000a81548160ff0219169083151502179055509050503373ffffffffffffffffffffffffffffffffffffffff166000547fd347156c0e050f531434f3eac5fc2137040ab077ca656f465275ebe566aaf11585846040516105ac929190611389565b60405180910390a3505050565b6002600083815260200190815260200160002060050160009054906101000a900460ff1661061c576040517f08c379a000000000000000000000000000000000000000000000000000000000815260040161061390611405565b60405180910390fd5b6001600081548092919061062f906110c3565b91905055506003600083815260200190815260200160002060405180608001604052803373ffffffffffffffffffffffffffffffffffffffff16815260200184815260200183815260200160001515815250908060018154018082558091505060019003906000526020600020906004020160009091909190915060008201518160000160006101000a81548173ffffffffffffffffffffffffffffffffffffffff021916908373ffffffffffffffffffffffffffffffffffffffff16021790555060208201518160010155604082015181600201908161071091906112b7565b5060608201518160030160006101000a81548160ff02191690831515021790555050503373ffffffffffffffffffffffffffffffffffffffff16827fdade408e5cd612a74423eb497e77aa7bf6749f2d6e0906d1cba11c6d1bad19648360405161077a9190611425565b60405180910390a35050565b600360205281600052604060002081815481106107a257600080fd5b9060005260206000209060040201600091509150508060000160009054906101000a900473ffffffffffffffffffffffffffffffffffffffff16908060010154908060020180546107f290610fd1565b80601f016020809104026020016040519081016040528092919081815260200182805461081e90610fd1565b801561086b5780601f106108405761010080835404028352916020019161086b565b820191906000526020600020905b81548152906001019060200180831161084e57829003601f168201915b5050505050908060030160009054906101000a900460ff16905084565b6002600083815260200190815260200160002060010160009054906101000a900473ffffffffffffffffffffffffffffffffffffffff1673ffffffffffffffffffffffffffffffffffffffff163373ffffffffffffffffffffffffffffffffffffffff161461092c576040517f08c379a0000000000000000000000000000000000000000000000000000000008152600401610923906114b9565b60405180910390fd5b6000600360008481526020019081526020016000208281548110610953576109526114d9565b5b906000526020600020906004020190508060030160009054906101000a900460ff16156109b5576040517f08c379a00000000000000000000000000000000000000000000000000000000081526004016109ac90611554565b60405180910390fd5b60018160030160006101000a81548160ff0219169083151502179055508060000160009054906101000a900473ffffffffffffffffffffffffffffffffffffffff1673ffffffffffffffffffffffffffffffffffffffff166108fc60026000868152602001908152602001600020600401549081150290604051600060405180830381858888f19350505050158015610a52573d6000803e3d6000fd5b508060000160009054906101000a900473ffffffffffffffffffffffffffffffffffffffff1673ffffffffffffffffffffffffffffffffffffffff163373ffffffffffffffffffffffffffffffffffffffff16847f9b5bb8f0afed5e13581b7d6b65a134f75210a356f409e8d3be0956fc93f651236002600088815260200190815260200160002060040154604051610aeb9190610cdf565b60405180910390a4505050565b60015481565b6000604051905090565b600080fd5b600080fd5b6000819050919050565b610b2581610b12565b8114610b3057600080fd5b50565b600081359050610b4281610b1c565b92915050565b600060208284031215610b5e57610b5d610b08565b5b6000610b6c84828501610b33565b91505092915050565b610b7e81610b12565b82525050565b600073ffffffffffffffffffffffffffffffffffffffff82169050919050565b6000610baf82610b84565b9050919050565b610bbf81610ba4565b82525050565b600081519050919050565b600082825260208201905092915050565b60005b83811015610bff578082015181840152602081019050610be4565b60008484015250505050565b6000601f19601f8301169050919050565b6000610c2782610bc5565b610c318185610bd0565b9350610c41818560208601610be1565b610c4a81610c0b565b840191505092915050565b60008115159050919050565b610c6a81610c55565b82525050565b600060c082019050610c856000830189610b75565b610c926020830188610bb6565b8181036040830152610ca48187610c1c565b90508181036060830152610cb88186610c1c565b9050610cc76080830185610b75565b610cd460a0830184610c61565b979650505050505050565b6000602082019050610cf46000830184610b75565b92915050565b600080fd5b600080fd5b7f4e487b7100000000000000000000000000000000000000000000000000000000600052604160045260246000fd5b610d3c82610c0b565b810181811067ffffffffffffffff82111715610d5b57610d5a610d04565b5b80604052505050565b6000610d6e610afe565b9050610d7a8282610d33565b919050565b600067ffffffffffffffff821115610d9a57610d99610d04565b5b610da382610c0b565b9050602081019050919050565b82818337600083830152505050565b6000610dd2610dcd84610d7f565b610d64565b905082815260208101848484011115610dee57610ded610cff565b5b610df9848285610db0565b509392505050565b600082601f830112610e1657610e15610cfa565b5b8135610e26848260208601610dbf565b91505092915050565b600080600060608486031215610e4857610e47610b08565b5b600084013567ffffffffffffffff811115610e6657610e65610b0d565b5b610e7286828701610e01565b935050602084013567ffffffffffffffff811115610e9357610e92610b0d565b5b610e9f86828701610e01565b9250506040610eb086828701610b33565b9150509250925092565b60008060408385031215610ed157610ed0610b08565b5b6000610edf85828601610b33565b925050602083013567ffffffffffffffff811115610f0057610eff610b0d565b5b610f0c85828601610e01565b9150509250929050565b60008060408385031215610f2d57610f2c610b08565b5b6000610f3b85828601610b33565b9250506020610f4c85828601610b33565b9150509250929050565b6000608082019050610f6b6000830187610bb6565b610f786020830186610b75565b8181036040830152610f8a8185610c1c565b9050610f996060830184610c61565b95945050505050565b7f4e487b7100000000000000000000000000000000000000000000000000000000600052602260045260246000fd5b60006002820490506001821680610fe957607f821691505b602082108103610ffc57610ffb610fa2565b5b50919050565b7f4f6e6c7920656d706c6f7965722063616e20646561637469766174652074686560008201527f206a6f622e000000000000000000000000000000000000000000000000000000602082015250565b600061105e602583610bd0565b915061106982611002565b604082019050919050565b6000602082019050818103600083015261108d81611051565b9050919050565b7f4e487b7100000000000000000000000000000000000000000000000000000000600052601160045260246000fd5b60006110ce82610b12565b91507fffffffffffffffffffffffffffffffffffffffffffffffffffffffffffffffff8203611100576110ff611094565b5b600182019050919050565b60008190508160005260206000209050919050565b60006020601f8301049050919050565b600082821b905092915050565b60006008830261116d7fffffffffffffffffffffffffffffffffffffffffffffffffffffffffffffffff82611130565b6111778683611130565b95508019841693508086168417925050509392505050565b6000819050919050565b60006111b46111af6111aa84610b12565b61118f565b610b12565b9050919050565b6000819050919050565b6111ce83611199565b6111e26111da826111bb565b84845461113d565b825550505050565b600090565b6111f76111ea565b6112028184846111c5565b505050565b5b818110156112265761121b6000826111ef565b600181019050611208565b5050565b601f82111561126b5761123c8161110b565b61124584611120565b81016020851015611254578190505b61126861126085611120565b830182611207565b50505b505050565b600082821c905092915050565b600061128e60001984600802611270565b1980831691505092915050565b60006112a7838361127d565b9150826002028217905092915050565b6112c082610bc5565b67ffffffffffffffff8111156112d9576112d8610d04565b5b6112e38254610fd1565b6112ee82828561122a565b600060209050601f831160018114611321576000841561130f578287015190505b611319858261129b565b865550611381565b601f19841661132f8661110b565b60005b8281101561135757848901518255600182019150602085019450602081019050611332565b868310156113745784890151611370601f89168261127d565b8355505b6001600288020188555050505b505050505050565b600060408201905081810360008301526113a38185610c1c565b90506113b26020830184610b75565b9392505050565b7f4a6f62206973206e6f74206163746976652e0000000000000000000000000000600082015250565b60006113ef601283610bd0565b91506113fa826113b9565b602082019050919050565b6000602082019050818103600083015261141e816113e2565b9050919050565b6000602082019050818103600083015261143f8184610c1c565b905092915050565b7f4f6e6c7920656d706c6f7965722063616e20616363657074206170706c69636160008201527f74696f6e732e0000000000000000000000000000000000000000000000000000602082015250565b60006114a3602683610bd0565b91506114ae82611447565b604082019050919050565b600060208201905081810360008301526114d281611496565b9050919050565b7f4e487b7100000000000000000000000000000000000000000000000000000000600052603260045260246000fd5b7f4170706c69636174696f6e20616c72656164792061636365707465642e000000600082015250565b600061153e601d83610bd0565b915061154982611508565b602082019050919050565b6000602082019050818103600083015261156d81611531565b905091905056fea26469706673582212206658efed3e2d3014a5fe46cd69861620b7595a5e71b85de06d91f65fee61e48964736f6c634300081c0033","opcodes":"PUSH1 0x80 PUSH1 0x40 MSTORE PUSH1 0x0 DUP1 SSTORE PUSH1 0x0 PUSH1 0x1 SSTORE CALLVALUE DUP1 ISZERO PUSH1 0x18 JUMPI PUSH1 0x0 DUP1 REVERT JUMPDEST POP PUSH2 0x15AA DUP1 PUSH2 0x28 PUSH1 0x0 CODECOPY PUSH1 0x0 RETURN INVALID PUSH1 0x80 PUSH1 0x40 MSTORE PUSH1 0x4 CALLDATASIZE LT PUSH2 0x7B JUMPI PUSH1 0x0 CALLDATALOAD PUSH1 0xE0 SHR DUP1 PUSH4 0x6C09A5E3 GT PUSH2 0x4E JUMPI DUP1 PUSH4 0x6C09A5E3 EQ PUSH2 0x13F JUMPI DUP1 PUSH4 0x7A870B63 EQ PUSH2 0x168 JUMPI DUP1 PUSH4 0x83F67F6E EQ PUSH2 0x1A8 JUMPI DUP1 PUSH4 0xE2AAD4A0 EQ PUSH2 0x1C4 JUMPI PUSH2 0x7B JUMP JUMPDEST DUP1 PUSH4 0x180AEDF3 EQ PUSH2 0x80 JUMPI DUP1 PUSH4 0x366D2A4B EQ PUSH2 0xC2 JUMPI DUP1 PUSH4 0x4C5D8A0F EQ PUSH2 0xEB JUMPI DUP1 PUSH4 0x5C3B9C4A EQ PUSH2 0x116 JUMPI JUMPDEST PUSH1 0x0 DUP1 REVERT JUMPDEST CALLVALUE DUP1 ISZERO PUSH2 0x8C JUMPI PUSH1 0x0 DUP1 REVERT JUMPDEST POP PUSH2 0xA7 PUSH1 0x4 DUP1 CALLDATASIZE SUB DUP2 ADD SWAP1 PUSH2 0xA2 SWAP2 SWAP1 PUSH2 0xB48 JUMP JUMPDEST PUSH2 0x1EF JUMP JUMPDEST PUSH1 0x40 MLOAD PUSH2 0xB9 SWAP7 SWAP6 SWAP5 SWAP4 SWAP3 SWAP2 SWAP1 PUSH2 0xC70 JUMP JUMPDEST PUSH1 0x40 MLOAD DUP1 SWAP2 SUB SWAP1 RETURN JUMPDEST CALLVALUE DUP1 ISZERO PUSH2 0xCE JUMPI PUSH1 0x0 DUP1 REVERT JUMPDEST POP PUSH2 0xE9 PUSH1 0x4 DUP1 CALLDATASIZE SUB DUP2 ADD SWAP1 PUSH2 0xE4 SWAP2 SWAP1 PUSH2 0xB48 JUMP JUMPDEST PUSH2 0x368 JUMP JUMPDEST STOP JUMPDEST CALLVALUE DUP1 ISZERO PUSH2 0xF7 JUMPI PUSH1 0x0 DUP1 REVERT JUMPDEST POP PUSH2 0x100 PUSH2 0x43E JUMP JUMPDEST PUSH1 0x40 MLOAD PUSH2 0x10D SWAP2 SWAP1 PUSH2 0xCDF JUMP JUMPDEST PUSH1 0x40 MLOAD DUP1 SWAP2 SUB SWAP1 RETURN JUMPDEST CALLVALUE DUP1 ISZERO PUSH2 0x122 JUMPI PUSH1 0x0 DUP1 REVERT JUMPDEST POP PUSH2 0x13D PUSH1 0x4 DUP1 CALLDATASIZE SUB DUP2 ADD SWAP1 PUSH2 0x138 SWAP2 SWAP1 PUSH2 0xE2F JUMP JUMPDEST PUSH2 0x444 JUMP JUMPDEST STOP JUMPDEST CALLVALUE DUP1 ISZERO PUSH2 0x14B JUMPI PUSH1 0x0 DUP1 REVERT JUMPDEST POP PUSH2 0x166 PUSH1 0x4 DUP1 CALLDATASIZE SUB DUP2 ADD SWAP1 PUSH2 0x161 SWAP2 SWAP1 PUSH2 0xEBA JUMP JUMPDEST PUSH2 0x5B9 JUMP JUMPDEST STOP JUMPDEST CALLVALUE DUP1 ISZERO PUSH2 0x174 JUMPI PUSH1 0x0 DUP1 REVERT JUMPDEST POP PUSH2 0x18F PUSH1 0x4 DUP1 CALLDATASIZE SUB DUP2 ADD SWAP1 PUSH2 0x18A SWAP2 SWAP1 PUSH2 0xF16 JUMP JUMPDEST PUSH2 0x786 JUMP JUMPDEST PUSH1 0x40 MLOAD PUSH2 0x19F SWAP5 SWAP4 SWAP3 SWAP2 SWAP1 PUSH2 0xF56 JUMP JUMPDEST PUSH1 0x40 MLOAD DUP1 SWAP2 SUB SWAP1 RETURN JUMPDEST PUSH2 0x1C2 PUSH1 0x4 DUP1 CALLDATASIZE SUB DUP2 ADD SWAP1 PUSH2 0x1BD SWAP2 SWAP1 PUSH2 0xF16 JUMP JUMPDEST PUSH2 0x888 JUMP JUMPDEST STOP JUMPDEST CALLVALUE DUP1 ISZERO PUSH2 0x1D0 JUMPI PUSH1 0x0 DUP1 REVERT JUMPDEST POP PUSH2 0x1D9 PUSH2 0xAF8 JUMP JUMPDEST PUSH1 0x40 MLOAD PUSH2 0x1E6 SWAP2 SWAP1 PUSH2 0xCDF JUMP JUMPDEST PUSH1 0x40 MLOAD DUP1 SWAP2 SUB SWAP1 RETURN JUMPDEST PUSH1 0x2 PUSH1 0x20 MSTORE DUP1 PUSH1 0x0 MSTORE PUSH1 0x40 PUSH1 0x0 KECCAK256 PUSH1 0x0 SWAP2 POP SWAP1 POP DUP1 PUSH1 0x0 ADD SLOAD SWAP1 DUP1 PUSH1 0x1 ADD PUSH1 0x0 SWAP1 SLOAD SWAP1 PUSH2 0x100 EXP SWAP1 DIV PUSH20 0xFFFFFFFFFFFFFFFFFFFFFFFFFFFFFFFFFFFFFFFF AND SWAP1 DUP1 PUSH1 0x2 ADD DUP1 SLOAD PUSH2 0x23E SWAP1 PUSH2 0xFD1 JUMP JUMPDEST DUP1 PUSH1 0x1F ADD PUSH1 0x20 DUP1 SWAP2 DIV MUL PUSH1 0x20 ADD PUSH1 0x40 MLOAD SWAP1 DUP2 ADD PUSH1 0x40 MSTORE DUP1 SWAP3 SWAP2 SWAP1 DUP2 DUP2 MSTORE PUSH1 0x20 ADD DUP3 DUP1 SLOAD PUSH2 0x26A SWAP1 PUSH2 0xFD1 JUMP JUMPDEST DUP1 ISZERO PUSH2 0x2B7 JUMPI DUP1 PUSH1 0x1F LT PUSH2 0x28C JUMPI PUSH2 0x100 DUP1 DUP4 SLOAD DIV MUL DUP4 MSTORE SWAP2 PUSH1 0x20 ADD SWAP2 PUSH2 0x2B7 JUMP JUMPDEST DUP3 ADD SWAP2 SWAP1 PUSH1 0x0 MSTORE PUSH1 0x20 PUSH1 0x0 KECCAK256 SWAP1 JUMPDEST DUP2 SLOAD DUP2 MSTORE SWAP1 PUSH1 0x1 ADD SWAP1 PUSH1 0x20 ADD DUP1 DUP4 GT PUSH2 0x29A JUMPI DUP3 SWAP1 SUB PUSH1 0x1F AND DUP3 ADD SWAP2 JUMPDEST POP POP POP POP POP SWAP1 DUP1 PUSH1 0x3 ADD DUP1 SLOAD PUSH2 0x2CC SWAP1 PUSH2 0xFD1 JUMP JUMPDEST DUP1 PUSH1 0x1F ADD PUSH1 0x20 DUP1 SWAP2 DIV MUL PUSH1 0x20 ADD PUSH1 0x40 MLOAD SWAP1 DUP2 ADD PUSH1 0x40 MSTORE DUP1 SWAP3 SWAP2 SWAP1 DUP2 DUP2 MSTORE PUSH1 0x20 ADD DUP3 DUP1 SLOAD PUSH2 0x2F8 SWAP1 PUSH2 0xFD1 JUMP JUMPDEST DUP1 ISZERO PUSH2 0x345 JUMPI DUP1 PUSH1 0x1F LT PUSH2 0x31A JUMPI PUSH2 0x100 DUP1 DUP4 SLOAD DIV MUL DUP4 MSTORE SWAP2 PUSH1 0x20 ADD SWAP2 PUSH2 0x345 JUMP JUMPDEST DUP3 ADD SWAP2 SWAP1 PUSH1 0x0 MSTORE PUSH1 0x20 PUSH1 0x0 KECCAK256 SWAP1 JUMPDEST DUP2 SLOAD DUP2 MSTORE SWAP1 PUSH1 0x1 ADD SWAP1 PUSH1 0x20 ADD DUP1 DUP4 GT PUSH2 0x328 JUMPI DUP3 SWAP1 SUB PUSH1 0x1F AND DUP3 ADD SWAP2 JUMPDEST POP POP POP POP POP SWAP1 DUP1 PUSH1 0x4 ADD SLOAD SWAP1 DUP1 PUSH1 0x5 ADD PUSH1 0x0 SWAP1 SLOAD SWAP1 PUSH2 0x100 EXP SWAP1 DIV PUSH1 0xFF AND SWAP1 POP DUP7 JUMP JUMPDEST PUSH1 0x2 PUSH1 0x0 DUP3 DUP2 MSTORE PUSH1 0x20 ADD SWAP1 DUP2 MSTORE PUSH1 0x20 ADD PUSH1 0x0 KECCAK256 PUSH1 0x1 ADD PUSH1 0x0 SWAP1 SLOAD SWAP1 PUSH2 0x100 EXP SWAP1 DIV PUSH20 0xFFFFFFFFFFFFFFFFFFFFFFFFFFFFFFFFFFFFFFFF AND PUSH20 0xFFFFFFFFFFFFFFFFFFFFFFFFFFFFFFFFFFFFFFFF AND CALLER PUSH20 0xFFFFFFFFFFFFFFFFFFFFFFFFFFFFFFFFFFFFFFFF AND EQ PUSH2 0x40C JUMPI PUSH1 0x40 MLOAD PUSH32 0x8C379A000000000000000000000000000000000000000000000000000000000 DUP2 MSTORE PUSH1 0x4 ADD PUSH2 0x403 SWAP1 PUSH2 0x1074 JUMP JUMPDEST PUSH1 0x40 MLOAD DUP1 SWAP2 SUB SWAP1 REVERT JUMPDEST PUSH1 0x0 PUSH1 0x2 PUSH1 0x0 DUP4 DUP2 MSTORE PUSH1 0x20 ADD SWAP1 DUP2 MSTORE PUSH1 0x20 ADD PUSH1 0x0 KECCAK256 PUSH1 0x5 ADD PUSH1 0x0 PUSH2 0x100 EXP DUP2 SLOAD DUP2 PUSH1 0xFF MUL NOT AND SWAP1 DUP4 ISZERO ISZERO MUL OR SWAP1 SSTORE POP POP JUMP JUMPDEST PUSH1 0x0 SLOAD DUP2 JUMP JUMPDEST PUSH1 0x0 DUP1 DUP2 SLOAD DUP1 SWAP3 SWAP2 SWAP1 PUSH2 0x456 SWAP1 PUSH2 0x10C3 JUMP JUMPDEST SWAP2 SWAP1 POP SSTORE POP PUSH1 0x40 MLOAD DUP1 PUSH1 0xC0 ADD PUSH1 0x40 MSTORE DUP1 PUSH1 0x0 SLOAD DUP2 MSTORE PUSH1 0x20 ADD CALLER PUSH20 0xFFFFFFFFFFFFFFFFFFFFFFFFFFFFFFFFFFFFFFFF AND DUP2 MSTORE PUSH1 0x20 ADD DUP5 DUP2 MSTORE PUSH1 0x20 ADD DUP4 DUP2 MSTORE PUSH1 0x20 ADD DUP3 DUP2 MSTORE PUSH1 0x20 ADD PUSH1 0x1 ISZERO ISZERO DUP2 MSTORE POP PUSH1 0x2 PUSH1 0x0 DUP1 SLOAD DUP2 MSTORE PUSH1 0x20 ADD SWAP1 DUP2 MSTORE PUSH1 0x20 ADD PUSH1 0x0 KECCAK256 PUSH1 0x0 DUP3 ADD MLOAD DUP2 PUSH1 0x0 ADD SSTORE PUSH1 0x20 DUP3 ADD MLOAD DUP2 PUSH1 0x1 ADD PUSH1 0x0 PUSH2 0x100 EXP DUP2 SLOAD DUP2 PUSH20 0xFFFFFFFFFFFFFFFFFFFFFFFFFFFFFFFFFFFFFFFF MUL NOT AND SWAP1 DUP4 PUSH20 0xFFFFFFFFFFFFFFFFFFFFFFFFFFFFFFFFFFFFFFFF AND MUL OR SWAP1 SSTORE POP PUSH1 0x40 DUP3 ADD MLOAD DUP2 PUSH1 0x2 ADD SWAP1 DUP2 PUSH2 0x51D SWAP2 SWAP1 PUSH2 0x12B7 JUMP JUMPDEST POP PUSH1 0x60 DUP3 ADD MLOAD DUP2 PUSH1 0x3 ADD SWAP1 DUP2 PUSH2 0x533 SWAP2 SWAP1 PUSH2 0x12B7 JUMP JUMPDEST POP PUSH1 0x80 DUP3 ADD MLOAD DUP2 PUSH1 0x4 ADD SSTORE PUSH1 0xA0 DUP3 ADD MLOAD DUP2 PUSH1 0x5 ADD PUSH1 0x0 PUSH2 0x100 EXP DUP2 SLOAD DUP2 PUSH1 0xFF MUL NOT AND SWAP1 DUP4 ISZERO ISZERO MUL OR SWAP1 SSTORE POP SWAP1 POP POP CALLER PUSH20 0xFFFFFFFFFFFFFFFFFFFFFFFFFFFFFFFFFFFFFFFF AND PUSH1 0x0 SLOAD PUSH32 0xD347156C0E050F531434F3EAC5FC2137040AB077CA656F465275EBE566AAF115 DUP6 DUP5 PUSH1 0x40 MLOAD PUSH2 0x5AC SWAP3 SWAP2 SWAP1 PUSH2 0x1389 JUMP JUMPDEST PUSH1 0x40 MLOAD DUP1 SWAP2 SUB SWAP1 LOG3 POP POP POP JUMP JUMPDEST PUSH1 0x2 PUSH1 0x0 DUP4 DUP2 MSTORE PUSH1 0x20 ADD SWAP1 DUP2 MSTORE PUSH1 0x20 ADD PUSH1 0x0 KECCAK256 PUSH1 0x5 ADD PUSH1 0x0 SWAP1 SLOAD SWAP1 PUSH2 0x100 EXP SWAP1 DIV PUSH1 0xFF AND PUSH2 0x61C JUMPI PUSH1 0x40 MLOAD PUSH32 0x8C379A000000000000000000000000000000000000000000000000000000000 DUP2 MSTORE PUSH1 0x4 ADD PUSH2 0x613 SWAP1 PUSH2 0x1405 JUMP JUMPDEST PUSH1 0x40 MLOAD DUP1 SWAP2 SUB SWAP1 REVERT JUMPDEST PUSH1 0x1 PUSH1 0x0 DUP2 SLOAD DUP1 SWAP3 SWAP2 SWAP1 PUSH2 0x62F SWAP1 PUSH2 0x10C3 JUMP JUMPDEST SWAP2 SWAP1 POP SSTORE POP PUSH1 0x3 PUSH1 0x0 DUP4 DUP2 MSTORE PUSH1 0x20 ADD SWAP1 DUP2 MSTORE PUSH1 0x20 ADD PUSH1 0x0 KECCAK256 PUSH1 0x40 MLOAD DUP1 PUSH1 0x80 ADD PUSH1 0x40 MSTORE DUP1 CALLER PUSH20 0xFFFFFFFFFFFFFFFFFFFFFFFFFFFFFFFFFFFFFFFF AND DUP2 MSTORE PUSH1 0x20 ADD DUP5 DUP2 MSTORE PUSH1 0x20 ADD DUP4 DUP2 MSTORE PUSH1 0x20 ADD PUSH1 0x0 ISZERO ISZERO DUP2 MSTORE POP SWAP1 DUP1 PUSH1 0x1 DUP2 SLOAD ADD DUP1 DUP3 SSTORE DUP1 SWAP2 POP POP PUSH1 0x1 SWAP1 SUB SWAP1 PUSH1 0x0 MSTORE PUSH1 0x20 PUSH1 0x0 KECCAK256 SWAP1 PUSH1 0x4 MUL ADD PUSH1 0x0 SWAP1 SWAP2 SWAP1 SWAP2 SWAP1 SWAP2 POP PUSH1 0x0 DUP3 ADD MLOAD DUP2 PUSH1 0x0 ADD PUSH1 0x0 PUSH2 0x100 EXP DUP2 SLOAD DUP2 PUSH20 0xFFFFFFFFFFFFFFFFFFFFFFFFFFFFFFFFFFFFFFFF MUL NOT AND SWAP1 DUP4 PUSH20 0xFFFFFFFFFFFFFFFFFFFFFFFFFFFFFFFFFFFFFFFF AND MUL OR SWAP1 SSTORE POP PUSH1 0x20 DUP3 ADD MLOAD DUP2 PUSH1 0x1 ADD SSTORE PUSH1 0x40 DUP3 ADD MLOAD DUP2 PUSH1 0x2 ADD SWAP1 DUP2 PUSH2 0x710 SWAP2 SWAP1 PUSH2 0x12B7 JUMP JUMPDEST POP PUSH1 0x60 DUP3 ADD MLOAD DUP2 PUSH1 0x3 ADD PUSH1 0x0 PUSH2 0x100 EXP DUP2 SLOAD DUP2 PUSH1 0xFF MUL NOT AND SWAP1 DUP4 ISZERO ISZERO MUL OR SWAP1 SSTORE POP POP POP CALLER PUSH20 0xFFFFFFFFFFFFFFFFFFFFFFFFFFFFFFFFFFFFFFFF AND DUP3 PUSH32 0xDADE408E5CD612A74423EB497E77AA7BF6749F2D6E0906D1CBA11C6D1BAD1964 DUP4 PUSH1 0x40 MLOAD PUSH2 0x77A SWAP2 SWAP1 PUSH2 0x1425 JUMP JUMPDEST PUSH1 0x40 MLOAD DUP1 SWAP2 SUB SWAP1 LOG3 POP POP JUMP JUMPDEST PUSH1 0x3 PUSH1 0x20 MSTORE DUP2 PUSH1 0x0 MSTORE PUSH1 0x40 PUSH1 0x0 KECCAK256 DUP2 DUP2 SLOAD DUP2 LT PUSH2 0x7A2 JUMPI PUSH1 0x0 DUP1 REVERT JUMPDEST SWAP1 PUSH1 0x0 MSTORE PUSH1 0x20 PUSH1 0x0 KECCAK256 SWAP1 PUSH1 0x4 MUL ADD PUSH1 0x0 SWAP2 POP SWAP2 POP POP DUP1 PUSH1 0x0 ADD PUSH1 0x0 SWAP1 SLOAD SWAP1 PUSH2 0x100 EXP SWAP1 DIV PUSH20 0xFFFFFFFFFFFFFFFFFFFFFFFFFFFFFFFFFFFFFFFF AND SWAP1 DUP1 PUSH1 0x1 ADD SLOAD SWAP1 DUP1 PUSH1 0x2 ADD DUP1 SLOAD PUSH2 0x7F2 SWAP1 PUSH2 0xFD1 JUMP JUMPDEST DUP1 PUSH1 0x1F ADD PUSH1 0x20 DUP1 SWAP2 DIV MUL PUSH1 0x20 ADD PUSH1 0x40 MLOAD SWAP1 DUP2 ADD PUSH1 0x40 MSTORE DUP1 SWAP3 SWAP2 SWAP1 DUP2 DUP2 MSTORE PUSH1 0x20 ADD DUP3 DUP1 SLOAD PUSH2 0x81E SWAP1 PUSH2 0xFD1 JUMP JUMPDEST DUP1 ISZERO PUSH2 0x86B JUMPI DUP1 PUSH1 0x1F LT PUSH2 0x840 JUMPI PUSH2 0x100 DUP1 DUP4 SLOAD DIV MUL DUP4 MSTORE SWAP2 PUSH1 0x20 ADD SWAP2 PUSH2 0x86B JUMP JUMPDEST DUP3 ADD SWAP2 SWAP1 PUSH1 0x0 MSTORE PUSH1 0x20 PUSH1 0x0 KECCAK256 SWAP1 JUMPDEST DUP2 SLOAD DUP2 MSTORE SWAP1 PUSH1 0x1 ADD SWAP1 PUSH1 0x20 ADD DUP1 DUP4 GT PUSH2 0x84E JUMPI DUP3 SWAP1 SUB PUSH1 0x1F AND DUP3 ADD SWAP2 JUMPDEST POP POP POP POP POP SWAP1 DUP1 PUSH1 0x3 ADD PUSH1 0x0 SWAP1 SLOAD SWAP1 PUSH2 0x100 EXP SWAP1 DIV PUSH1 0xFF AND SWAP1 POP DUP5 JUMP JUMPDEST PUSH1 0x2 PUSH1 0x0 DUP4 DUP2 MSTORE PUSH1 0x20 ADD SWAP1 DUP2 MSTORE PUSH1 0x20 ADD PUSH1 0x0 KECCAK256 PUSH1 0x1 ADD PUSH1 0x0 SWAP1 SLOAD SWAP1 PUSH2 0x100 EXP SWAP1 DIV PUSH20 0xFFFFFFFFFFFFFFFFFFFFFFFFFFFFFFFFFFFFFFFF AND PUSH20 0xFFFFFFFFFFFFFFFFFFFFFFFFFFFFFFFFFFFFFFFF AND CALLER PUSH20 0xFFFFFFFFFFFFFFFFFFFFFFFFFFFFFFFFFFFFFFFF AND EQ PUSH2 0x92C JUMPI PUSH1 0x40 MLOAD PUSH32 0x8C379A000000000000000000000000000000000000000000000000000000000 DUP2 MSTORE PUSH1 0x4 ADD PUSH2 0x923 SWAP1 PUSH2 0x14B9 JUMP JUMPDEST PUSH1 0x40 MLOAD DUP1 SWAP2 SUB SWAP1 REVERT JUMPDEST PUSH1 0x0 PUSH1 0x3 PUSH1 0x0 DUP5 DUP2 MSTORE PUSH1 0x20 ADD SWAP1 DUP2 MSTORE PUSH1 0x20 ADD PUSH1 0x0 KECCAK256 DUP3 DUP2 SLOAD DUP2 LT PUSH2 0x953 JUMPI PUSH2 0x952 PUSH2 0x14D9 JUMP JUMPDEST JUMPDEST SWAP1 PUSH1 0x0 MSTORE PUSH1 0x20 PUSH1 0x0 KECCAK256 SWAP1 PUSH1 0x4 MUL ADD SWAP1 POP DUP1 PUSH1 0x3 ADD PUSH1 0x0 SWAP1 SLOAD SWAP1 PUSH2 0x100 EXP SWAP1 DIV PUSH1 0xFF AND ISZERO PUSH2 0x9B5 JUMPI PUSH1 0x40 MLOAD PUSH32 0x8C379A000000000000000000000000000000000000000000000000000000000 DUP2 MSTORE PUSH1 0x4 ADD PUSH2 0x9AC SWAP1 PUSH2 0x1554 JUMP JUMPDEST PUSH1 0x40 MLOAD DUP1 SWAP2 SUB SWAP1 REVERT JUMPDEST PUSH1 0x1 DUP2 PUSH1 0x3 ADD PUSH1 0x0 PUSH2 0x100 EXP DUP2 SLOAD DUP2 PUSH1 0xFF MUL NOT AND SWAP1 DUP4 ISZERO ISZERO MUL OR SWAP1 SSTORE POP DUP1 PUSH1 0x0 ADD PUSH1 0x0 SWAP1 SLOAD SWAP1 PUSH2 0x100 EXP SWAP1 DIV PUSH20 0xFFFFFFFFFFFFFFFFFFFFFFFFFFFFFFFFFFFFFFFF AND PUSH20 0xFFFFFFFFFFFFFFFFFFFFFFFFFFFFFFFFFFFFFFFF AND PUSH2 0x8FC PUSH1 0x2 PUSH1 0x0 DUP7 DUP2 MSTORE PUSH1 0x20 ADD SWAP1 DUP2 MSTORE PUSH1 0x20 ADD PUSH1 0x0 KECCAK256 PUSH1 0x4 ADD SLOAD SWAP1 DUP2 ISZERO MUL SWAP1 PUSH1 0x40 MLOAD PUSH1 0x0 PUSH1 0x40 MLOAD DUP1 DUP4 SUB DUP2 DUP6 DUP9 DUP9 CALL SWAP4 POP POP POP POP ISZERO DUP1 ISZERO PUSH2 0xA52 JUMPI RETURNDATASIZE PUSH1 0x0 DUP1 RETURNDATACOPY RETURNDATASIZE PUSH1 0x0 REVERT JUMPDEST POP DUP1 PUSH1 0x0 ADD PUSH1 0x0 SWAP1 SLOAD SWAP1 PUSH2 0x100 EXP SWAP1 DIV PUSH20 0xFFFFFFFFFFFFFFFFFFFFFFFFFFFFFFFFFFFFFFFF AND PUSH20 0xFFFFFFFFFFFFFFFFFFFFFFFFFFFFFFFFFFFFFFFF AND CALLER PUSH20 0xFFFFFFFFFFFFFFFFFFFFFFFFFFFFFFFFFFFFFFFF AND DUP5 PUSH32 0x9B5BB8F0AFED5E13581B7D6B65A134F75210A356F409E8D3BE0956FC93F65123 PUSH1 0x2 PUSH1 0x0 DUP9 DUP2 MSTORE PUSH1 0x20 ADD SWAP1 DUP2 MSTORE PUSH1 0x20 ADD PUSH1 0x0 KECCAK256 PUSH1 0x4 ADD SLOAD PUSH1 0x40 MLOAD PUSH2 0xAEB SWAP2 SWAP1 PUSH2 0xCDF JUMP JUMPDEST PUSH1 0x40 MLOAD DUP1 SWAP2 SUB SWAP1 LOG4 POP POP POP JUMP JUMPDEST PUSH1 0x1 SLOAD DUP2 JUMP JUMPDEST PUSH1 0x0 PUSH1 0x40 MLOAD SWAP1 POP SWAP1 JUMP JUMPDEST PUSH1 0x0 DUP1 REVERT JUMPDEST PUSH1 0x0 DUP1 REVERT JUMPDEST PUSH1 0x0 DUP2 SWAP1 POP SWAP2 SWAP1 POP JUMP JUMPDEST PUSH2 0xB25 DUP2 PUSH2 0xB12 JUMP JUMPDEST DUP2 EQ PUSH2 0xB30 JUMPI PUSH1 0x0 DUP1 REVERT JUMPDEST POP JUMP JUMPDEST PUSH1 0x0 DUP2 CALLDATALOAD SWAP1 POP PUSH2 0xB42 DUP2 PUSH2 0xB1C JUMP JUMPDEST SWAP3 SWAP2 POP POP JUMP JUMPDEST PUSH1 0x0 PUSH1 0x20 DUP3 DUP5 SUB SLT ISZERO PUSH2 0xB5E JUMPI PUSH2 0xB5D PUSH2 0xB08 JUMP JUMPDEST JUMPDEST PUSH1 0x0 PUSH2 0xB6C DUP5 DUP3 DUP6 ADD PUSH2 0xB33 JUMP JUMPDEST SWAP2 POP POP SWAP3 SWAP2 POP POP JUMP JUMPDEST PUSH2 0xB7E DUP2 PUSH2 0xB12 JUMP JUMPDEST DUP3 MSTORE POP POP JUMP JUMPDEST PUSH1 0x0 PUSH20 0xFFFFFFFFFFFFFFFFFFFFFFFFFFFFFFFFFFFFFFFF DUP3 AND SWAP1 POP SWAP2 SWAP1 POP JUMP JUMPDEST PUSH1 0x0 PUSH2 0xBAF DUP3 PUSH2 0xB84 JUMP JUMPDEST SWAP1 POP SWAP2 SWAP1 POP JUMP JUMPDEST PUSH2 0xBBF DUP2 PUSH2 0xBA4 JUMP JUMPDEST DUP3 MSTORE POP POP JUMP JUMPDEST PUSH1 0x0 DUP2 MLOAD SWAP1 POP SWAP2 SWAP1 POP JUMP JUMPDEST PUSH1 0x0 DUP3 DUP3 MSTORE PUSH1 0x20 DUP3 ADD SWAP1 POP SWAP3 SWAP2 POP POP JUMP JUMPDEST PUSH1 0x0 JUMPDEST DUP4 DUP2 LT ISZERO PUSH2 0xBFF JUMPI DUP1 DUP3 ADD MLOAD DUP2 DUP5 ADD MSTORE PUSH1 0x20 DUP2 ADD SWAP1 POP PUSH2 0xBE4 JUMP JUMPDEST PUSH1 0x0 DUP5 DUP5 ADD MSTORE POP POP POP POP JUMP JUMPDEST PUSH1 0x0 PUSH1 0x1F NOT PUSH1 0x1F DUP4 ADD AND SWAP1 POP SWAP2 SWAP1 POP JUMP JUMPDEST PUSH1 0x0 PUSH2 0xC27 DUP3 PUSH2 0xBC5 JUMP JUMPDEST PUSH2 0xC31 DUP2 DUP6 PUSH2 0xBD0 JUMP JUMPDEST SWAP4 POP PUSH2 0xC41 DUP2 DUP6 PUSH1 0x20 DUP7 ADD PUSH2 0xBE1 JUMP JUMPDEST PUSH2 0xC4A DUP2 PUSH2 0xC0B JUMP JUMPDEST DUP5 ADD SWAP2 POP POP SWAP3 SWAP2 POP POP JUMP JUMPDEST PUSH1 0x0 DUP2 ISZERO ISZERO SWAP1 POP SWAP2 SWAP1 POP JUMP JUMPDEST PUSH2 0xC6A DUP2 PUSH2 0xC55 JUMP JUMPDEST DUP3 MSTORE POP POP JUMP JUMPDEST PUSH1 0x0 PUSH1 0xC0 DUP3 ADD SWAP1 POP PUSH2 0xC85 PUSH1 0x0 DUP4 ADD DUP10 PUSH2 0xB75 JUMP JUMPDEST PUSH2 0xC92 PUSH1 0x20 DUP4 ADD DUP9 PUSH2 0xBB6 JUMP JUMPDEST DUP2 DUP2 SUB PUSH1 0x40 DUP4 ADD MSTORE PUSH2 0xCA4 DUP2 DUP8 PUSH2 0xC1C JUMP JUMPDEST SWAP1 POP DUP2 DUP2 SUB PUSH1 0x60 DUP4 ADD MSTORE PUSH2 0xCB8 DUP2 DUP7 PUSH2 0xC1C JUMP JUMPDEST SWAP1 POP PUSH2 0xCC7 PUSH1 0x80 DUP4 ADD DUP6 PUSH2 0xB75 JUMP JUMPDEST PUSH2 0xCD4 PUSH1 0xA0 DUP4 ADD DUP5 PUSH2 0xC61 JUMP JUMPDEST SWAP8 SWAP7 POP POP POP POP POP POP POP JUMP JUMPDEST PUSH1 0x0 PUSH1 0x20 DUP3 ADD SWAP1 POP PUSH2 0xCF4 PUSH1 0x0 DUP4 ADD DUP5 PUSH2 0xB75 JUMP JUMPDEST SWAP3 SWAP2 POP POP JUMP JUMPDEST PUSH1 0x0 DUP1 REVERT JUMPDEST PUSH1 0x0 DUP1 REVERT JUMPDEST PUSH32 0x4E487B7100000000000000000000000000000000000000000000000000000000 PUSH1 0x0 MSTORE PUSH1 0x41 PUSH1 0x4 MSTORE PUSH1 0x24 PUSH1 0x0 REVERT JUMPDEST PUSH2 0xD3C DUP3 PUSH2 0xC0B JUMP JUMPDEST DUP2 ADD DUP2 DUP2 LT PUSH8 0xFFFFFFFFFFFFFFFF DUP3 GT OR ISZERO PUSH2 0xD5B JUMPI PUSH2 0xD5A PUSH2 0xD04 JUMP JUMPDEST JUMPDEST DUP1 PUSH1 0x40 MSTORE POP POP POP JUMP JUMPDEST PUSH1 0x0 PUSH2 0xD6E PUSH2 0xAFE JUMP JUMPDEST SWAP1 POP PUSH2 0xD7A DUP3 DUP3 PUSH2 0xD33 JUMP JUMPDEST SWAP2 SWAP1 POP JUMP JUMPDEST PUSH1 0x0 PUSH8 0xFFFFFFFFFFFFFFFF DUP3 GT ISZERO PUSH2 0xD9A JUMPI PUSH2 0xD99 PUSH2 0xD04 JUMP JUMPDEST JUMPDEST PUSH2 0xDA3 DUP3 PUSH2 0xC0B JUMP JUMPDEST SWAP1 POP PUSH1 0x20 DUP2 ADD SWAP1 POP SWAP2 SWAP1 POP JUMP JUMPDEST DUP3 DUP2 DUP4 CALLDATACOPY PUSH1 0x0 DUP4 DUP4 ADD MSTORE POP POP POP JUMP JUMPDEST PUSH1 0x0 PUSH2 0xDD2 PUSH2 0xDCD DUP5 PUSH2 0xD7F JUMP JUMPDEST PUSH2 0xD64 JUMP JUMPDEST SWAP1 POP DUP3 DUP2 MSTORE PUSH1 0x20 DUP2 ADD DUP5 DUP5 DUP5 ADD GT ISZERO PUSH2 0xDEE JUMPI PUSH2 0xDED PUSH2 0xCFF JUMP JUMPDEST JUMPDEST PUSH2 0xDF9 DUP5 DUP3 DUP6 PUSH2 0xDB0 JUMP JUMPDEST POP SWAP4 SWAP3 POP POP POP JUMP JUMPDEST PUSH1 0x0 DUP3 PUSH1 0x1F DUP4 ADD SLT PUSH2 0xE16 JUMPI PUSH2 0xE15 PUSH2 0xCFA JUMP JUMPDEST JUMPDEST DUP2 CALLDATALOAD PUSH2 0xE26 DUP5 DUP3 PUSH1 0x20 DUP7 ADD PUSH2 0xDBF JUMP JUMPDEST SWAP2 POP POP SWAP3 SWAP2 POP POP JUMP JUMPDEST PUSH1 0x0 DUP1 PUSH1 0x0 PUSH1 0x60 DUP5 DUP7 SUB SLT ISZERO PUSH2 0xE48 JUMPI PUSH2 0xE47 PUSH2 0xB08 JUMP JUMPDEST JUMPDEST PUSH1 0x0 DUP5 ADD CALLDATALOAD PUSH8 0xFFFFFFFFFFFFFFFF DUP2 GT ISZERO PUSH2 0xE66 JUMPI PUSH2 0xE65 PUSH2 0xB0D JUMP JUMPDEST JUMPDEST PUSH2 0xE72 DUP7 DUP3 DUP8 ADD PUSH2 0xE01 JUMP JUMPDEST SWAP4 POP POP PUSH1 0x20 DUP5 ADD CALLDATALOAD PUSH8 0xFFFFFFFFFFFFFFFF DUP2 GT ISZERO PUSH2 0xE93 JUMPI PUSH2 0xE92 PUSH2 0xB0D JUMP JUMPDEST JUMPDEST PUSH2 0xE9F DUP7 DUP3 DUP8 ADD PUSH2 0xE01 JUMP JUMPDEST SWAP3 POP POP PUSH1 0x40 PUSH2 0xEB0 DUP7 DUP3 DUP8 ADD PUSH2 0xB33 JUMP JUMPDEST SWAP2 POP POP SWAP3 POP SWAP3 POP SWAP3 JUMP JUMPDEST PUSH1 0x0 DUP1 PUSH1 0x40 DUP4 DUP6 SUB SLT ISZERO PUSH2 0xED1 JUMPI PUSH2 0xED0 PUSH2 0xB08 JUMP JUMPDEST JUMPDEST PUSH1 0x0 PUSH2 0xEDF DUP6 DUP3 DUP7 ADD PUSH2 0xB33 JUMP JUMPDEST SWAP3 POP POP PUSH1 0x20 DUP4 ADD CALLDATALOAD PUSH8 0xFFFFFFFFFFFFFFFF DUP2 GT ISZERO PUSH2 0xF00 JUMPI PUSH2 0xEFF PUSH2 0xB0D JUMP JUMPDEST JUMPDEST PUSH2 0xF0C DUP6 DUP3 DUP7 ADD PUSH2 0xE01 JUMP JUMPDEST SWAP2 POP POP SWAP3 POP SWAP3 SWAP1 POP JUMP JUMPDEST PUSH1 0x0 DUP1 PUSH1 0x40 DUP4 DUP6 SUB SLT ISZERO PUSH2 0xF2D JUMPI PUSH2 0xF2C PUSH2 0xB08 JUMP JUMPDEST JUMPDEST PUSH1 0x0 PUSH2 0xF3B DUP6 DUP3 DUP7 ADD PUSH2 0xB33 JUMP JUMPDEST SWAP3 POP POP PUSH1 0x20 PUSH2 0xF4C DUP6 DUP3 DUP7 ADD PUSH2 0xB33 JUMP JUMPDEST SWAP2 POP POP SWAP3 POP SWAP3 SWAP1 POP JUMP JUMPDEST PUSH1 0x0 PUSH1 0x80 DUP3 ADD SWAP1 POP PUSH2 0xF6B PUSH1 0x0 DUP4 ADD DUP8 PUSH2 0xBB6 JUMP JUMPDEST PUSH2 0xF78 PUSH1 0x20 DUP4 ADD DUP7 PUSH2 0xB75 JUMP JUMPDEST DUP2 DUP2 SUB PUSH1 0x40 DUP4 ADD MSTORE PUSH2 0xF8A DUP2 DUP6 PUSH2 0xC1C JUMP JUMPDEST SWAP1 POP PUSH2 0xF99 PUSH1 0x60 DUP4 ADD DUP5 PUSH2 0xC61 JUMP JUMPDEST SWAP6 SWAP5 POP POP POP POP POP JUMP JUMPDEST PUSH32 0x4E487B7100000000000000000000000000000000000000000000000000000000 PUSH1 0x0 MSTORE PUSH1 0x22 PUSH1 0x4 MSTORE PUSH1 0x24 PUSH1 0x0 REVERT JUMPDEST PUSH1 0x0 PUSH1 0x2 DUP3 DIV SWAP1 POP PUSH1 0x1 DUP3 AND DUP1 PUSH2 0xFE9 JUMPI PUSH1 0x7F DUP3 AND SWAP2 POP JUMPDEST PUSH1 0x20 DUP3 LT DUP2 SUB PUSH2 0xFFC JUMPI PUSH2 0xFFB PUSH2 0xFA2 JUMP JUMPDEST JUMPDEST POP SWAP2 SWAP1 POP JUMP JUMPDEST PUSH32 0x4F6E6C7920656D706C6F7965722063616E206465616374697661746520746865 PUSH1 0x0 DUP3 ADD MSTORE PUSH32 0x206A6F622E000000000000000000000000000000000000000000000000000000 PUSH1 0x20 DUP3 ADD MSTORE POP JUMP JUMPDEST PUSH1 0x0 PUSH2 0x105E PUSH1 0x25 DUP4 PUSH2 0xBD0 JUMP JUMPDEST SWAP2 POP PUSH2 0x1069 DUP3 PUSH2 0x1002 JUMP JUMPDEST PUSH1 0x40 DUP3 ADD SWAP1 POP SWAP2 SWAP1 POP JUMP JUMPDEST PUSH1 0x0 PUSH1 0x20 DUP3 ADD SWAP1 POP DUP2 DUP2 SUB PUSH1 0x0 DUP4 ADD MSTORE PUSH2 0x108D DUP2 PUSH2 0x1051 JUMP JUMPDEST SWAP1 POP SWAP2 SWAP1 POP JUMP JUMPDEST PUSH32 0x4E487B7100000000000000000000000000000000000000000000000000000000 PUSH1 0x0 MSTORE PUSH1 0x11 PUSH1 0x4 MSTORE PUSH1 0x24 PUSH1 0x0 REVERT JUMPDEST PUSH1 0x0 PUSH2 0x10CE DUP3 PUSH2 0xB12 JUMP JUMPDEST SWAP2 POP PUSH32 0xFFFFFFFFFFFFFFFFFFFFFFFFFFFFFFFFFFFFFFFFFFFFFFFFFFFFFFFFFFFFFFFF DUP3 SUB PUSH2 0x1100 JUMPI PUSH2 0x10FF PUSH2 0x1094 JUMP JUMPDEST JUMPDEST PUSH1 0x1 DUP3 ADD SWAP1 POP SWAP2 SWAP1 POP JUMP JUMPDEST PUSH1 0x0 DUP2 SWAP1 POP DUP2 PUSH1 0x0 MSTORE PUSH1 0x20 PUSH1 0x0 KECCAK256 SWAP1 POP SWAP2 SWAP1 POP JUMP JUMPDEST PUSH1 0x0 PUSH1 0x20 PUSH1 0x1F DUP4 ADD DIV SWAP1 POP SWAP2 SWAP1 POP JUMP JUMPDEST PUSH1 0x0 DUP3 DUP3 SHL SWAP1 POP SWAP3 SWAP2 POP POP JUMP JUMPDEST PUSH1 0x0 PUSH1 0x8 DUP4 MUL PUSH2 0x116D PUSH32 0xFFFFFFFFFFFFFFFFFFFFFFFFFFFFFFFFFFFFFFFFFFFFFFFFFFFFFFFFFFFFFFFF DUP3 PUSH2 0x1130 JUMP JUMPDEST PUSH2 0x1177 DUP7 DUP4 PUSH2 0x1130 JUMP JUMPDEST SWAP6 POP DUP1 NOT DUP5 AND SWAP4 POP DUP1 DUP7 AND DUP5 OR SWAP3 POP POP POP SWAP4 SWAP3 POP POP POP JUMP JUMPDEST PUSH1 0x0 DUP2 SWAP1 POP SWAP2 SWAP1 POP JUMP JUMPDEST PUSH1 0x0 PUSH2 0x11B4 PUSH2 0x11AF PUSH2 0x11AA DUP5 PUSH2 0xB12 JUMP JUMPDEST PUSH2 0x118F JUMP JUMPDEST PUSH2 0xB12 JUMP JUMPDEST SWAP1 POP SWAP2 SWAP1 POP JUMP JUMPDEST PUSH1 0x0 DUP2 SWAP1 POP SWAP2 SWAP1 POP JUMP JUMPDEST PUSH2 0x11CE DUP4 PUSH2 0x1199 JUMP JUMPDEST PUSH2 0x11E2 PUSH2 0x11DA DUP3 PUSH2 0x11BB JUMP JUMPDEST DUP5 DUP5 SLOAD PUSH2 0x113D JUMP JUMPDEST DUP3 SSTORE POP POP POP POP JUMP JUMPDEST PUSH1 0x0 SWAP1 JUMP JUMPDEST PUSH2 0x11F7 PUSH2 0x11EA JUMP JUMPDEST PUSH2 0x1202 DUP2 DUP5 DUP5 PUSH2 0x11C5 JUMP JUMPDEST POP POP POP JUMP JUMPDEST JUMPDEST DUP2 DUP2 LT ISZERO PUSH2 0x1226 JUMPI PUSH2 0x121B PUSH1 0x0 DUP3 PUSH2 0x11EF JUMP JUMPDEST PUSH1 0x1 DUP2 ADD SWAP1 POP PUSH2 0x1208 JUMP JUMPDEST POP POP JUMP JUMPDEST PUSH1 0x1F DUP3 GT ISZERO PUSH2 0x126B JUMPI PUSH2 0x123C DUP2 PUSH2 0x110B JUMP JUMPDEST PUSH2 0x1245 DUP5 PUSH2 0x1120 JUMP JUMPDEST DUP2 ADD PUSH1 0x20 DUP6 LT ISZERO PUSH2 0x1254 JUMPI DUP2 SWAP1 POP JUMPDEST PUSH2 0x1268 PUSH2 0x1260 DUP6 PUSH2 0x1120 JUMP JUMPDEST DUP4 ADD DUP3 PUSH2 0x1207 JUMP JUMPDEST POP POP JUMPDEST POP POP POP JUMP JUMPDEST PUSH1 0x0 DUP3 DUP3 SHR SWAP1 POP SWAP3 SWAP2 POP POP JUMP JUMPDEST PUSH1 0x0 PUSH2 0x128E PUSH1 0x0 NOT DUP5 PUSH1 0x8 MUL PUSH2 0x1270 JUMP JUMPDEST NOT DUP1 DUP4 AND SWAP2 POP POP SWAP3 SWAP2 POP POP JUMP JUMPDEST PUSH1 0x0 PUSH2 0x12A7 DUP4 DUP4 PUSH2 0x127D JUMP JUMPDEST SWAP2 POP DUP3 PUSH1 0x2 MUL DUP3 OR SWAP1 POP SWAP3 SWAP2 POP POP JUMP JUMPDEST PUSH2 0x12C0 DUP3 PUSH2 0xBC5 JUMP JUMPDEST PUSH8 0xFFFFFFFFFFFFFFFF DUP2 GT ISZERO PUSH2 0x12D9 JUMPI PUSH2 0x12D8 PUSH2 0xD04 JUMP JUMPDEST JUMPDEST PUSH2 0x12E3 DUP3 SLOAD PUSH2 0xFD1 JUMP JUMPDEST PUSH2 0x12EE DUP3 DUP3 DUP6 PUSH2 0x122A JUMP JUMPDEST PUSH1 0x0 PUSH1 0x20 SWAP1 POP PUSH1 0x1F DUP4 GT PUSH1 0x1 DUP2 EQ PUSH2 0x1321 JUMPI PUSH1 0x0 DUP5 ISZERO PUSH2 0x130F JUMPI DUP3 DUP8 ADD MLOAD SWAP1 POP JUMPDEST PUSH2 0x1319 DUP6 DUP3 PUSH2 0x129B JUMP JUMPDEST DUP7 SSTORE POP PUSH2 0x1381 JUMP JUMPDEST PUSH1 0x1F NOT DUP5 AND PUSH2 0x132F DUP7 PUSH2 0x110B JUMP JUMPDEST PUSH1 0x0 JUMPDEST DUP3 DUP2 LT ISZERO PUSH2 0x1357 JUMPI DUP5 DUP10 ADD MLOAD DUP3 SSTORE PUSH1 0x1 DUP3 ADD SWAP2 POP PUSH1 0x20 DUP6 ADD SWAP5 POP PUSH1 0x20 DUP2 ADD SWAP1 POP PUSH2 0x1332 JUMP JUMPDEST DUP7 DUP4 LT ISZERO PUSH2 0x1374 JUMPI DUP5 DUP10 ADD MLOAD PUSH2 0x1370 PUSH1 0x1F DUP10 AND DUP3 PUSH2 0x127D JUMP JUMPDEST DUP4 SSTORE POP JUMPDEST PUSH1 0x1 PUSH1 0x2 DUP9 MUL ADD DUP9 SSTORE POP POP POP JUMPDEST POP POP POP POP POP POP JUMP JUMPDEST PUSH1 0x0 PUSH1 0x40 DUP3 ADD SWAP1 POP DUP2 DUP2 SUB PUSH1 0x0 DUP4 ADD MSTORE PUSH2 0x13A3 DUP2 DUP6 PUSH2 0xC1C JUMP JUMPDEST SWAP1 POP PUSH2 0x13B2 PUSH1 0x20 DUP4 ADD DUP5 PUSH2 0xB75 JUMP JUMPDEST SWAP4 SWAP3 POP POP POP JUMP JUMPDEST PUSH32 0x4A6F62206973206E6F74206163746976652E0000000000000000000000000000 PUSH1 0x0 DUP3 ADD MSTORE POP JUMP JUMPDEST PUSH1 0x0 PUSH2 0x13EF PUSH1 0x12 DUP4 PUSH2 0xBD0 JUMP JUMPDEST SWAP2 POP PUSH2 0x13FA DUP3 PUSH2 0x13B9 JUMP JUMPDEST PUSH1 0x20 DUP3 ADD SWAP1 POP SWAP2 SWAP1 POP JUMP JUMPDEST PUSH1 0x0 PUSH1 0x20 DUP3 ADD SWAP1 POP DUP2 DUP2 SUB PUSH1 0x0 DUP4 ADD MSTORE PUSH2 0x141E DUP2 PUSH2 0x13E2 JUMP JUMPDEST SWAP1 POP SWAP2 SWAP1 POP JUMP JUMPDEST PUSH1 0x0 PUSH1 0x20 DUP3 ADD SWAP1 POP DUP2 DUP2 SUB PUSH1 0x0 DUP4 ADD MSTORE PUSH2 0x143F DUP2 DUP5 PUSH2 0xC1C JUMP JUMPDEST SWAP1 POP SWAP3 SWAP2 POP POP JUMP JUMPDEST PUSH32 0x4F6E6C7920656D706C6F7965722063616E20616363657074206170706C696361 PUSH1 0x0 DUP3 ADD MSTORE PUSH32 0x74696F6E732E0000000000000000000000000000000000000000000000000000 PUSH1 0x20 DUP3 ADD MSTORE POP JUMP JUMPDEST PUSH1 0x0 PUSH2 0x14A3 PUSH1 0x26 DUP4 PUSH2 0xBD0 JUMP JUMPDEST SWAP2 POP PUSH2 0x14AE DUP3 PUSH2 0x1447 JUMP JUMPDEST PUSH1 0x40 DUP3 ADD SWAP1 POP SWAP2 SWAP1 POP JUMP JUMPDEST PUSH1 0x0 PUSH1 0x20 DUP3 ADD SWAP1 POP DUP2 DUP2 SUB PUSH1 0x0 DUP4 ADD MSTORE PUSH2 0x14D2 DUP2 PUSH2 0x1496 JUMP JUMPDEST SWAP1 POP SWAP2 SWAP1 POP JUMP JUMPDEST PUSH32 0x4E487B7100000000000000000000000000000000000000000000000000000000 PUSH1 0x0 MSTORE PUSH1 0x32 PUSH1 0x4 MSTORE PUSH1 0x24 PUSH1 0x0 REVERT JUMPDEST PUSH32 0x4170706C69636174696F6E20616C72656164792061636365707465642E000000 PUSH1 0x0 DUP3 ADD MSTORE POP JUMP JUMPDEST PUSH1 0x0 PUSH2 0x153E PUSH1 0x1D DUP4 PUSH2 0xBD0 JUMP JUMPDEST SWAP2 POP PUSH2 0x1549 DUP3 PUSH2 0x1508 JUMP JUMPDEST PUSH1 0x20 DUP3 ADD SWAP1 POP SWAP2 SWAP1 POP JUMP JUMPDEST PUSH1 0x0 PUSH1 0x20 DUP3 ADD SWAP1 POP DUP2 DUP2 SUB PUSH1 0x0 DUP4 ADD MSTORE PUSH2 0x156D DUP2 PUSH2 0x1531 JUMP JUMPDEST SWAP1 POP SWAP2 SWAP1 POP JUMP INVALID LOG2 PUSH5 0x6970667358 0x22 SLT KECCAK256 PUSH7 0x58EFED3E2D3014 0xA5 INVALID CHAINID 0xCD PUSH10 0x861620B7595A5E71B85D 0xE0 PUSH14 0x91F65FEE61E48964736F6C634300 ADDMOD SHR STOP CALLER "},"methodIdentifiers":{"acceptApplication(uint256,uint256)":"83f67f6e","applicationCount()":"e2aad4a0","applications(uint256,uint256)":"7a870b63","applyForJob(uint256,string)":"6c09a5e3","deactivateJob(uint256)":"366d2a4b","jobCount()":"4c5d8a0f","jobs(uint256)":"180aedf3","postJob(string,string,uint256)":"5c3b9c4a"}}}}}