{
  "_format": "hh-sol-artifact-1",
  "contractName": "JobBoard",
  "sourceName": "contracts/jobBoard.sol",
  "abi": [
    {
      "inputs": [
        {
          "internalType": "address",
          "name": "_reputationSystem",
          "type": "address"
        }
      ],
      "stateMutability": "nonpayable",
      "type": "constructor"
    },
    {
      "inputs": [
        {
          "internalType": "uint256",
          "name": "jobId",
          "type": "uint256"
        },
        {
          "internalType": "uint256",
          "name": "idx",
          "type": "uint256"
        }
      ],
      "name": "acceptApplication",
      "outputs": [],
      "stateMutability": "payable",
      "type": "function"
    },
    {
      "inputs": [
        {
          "internalType": "uint256",
          "name": "",
          "type": "uint256"
        },
        {
          "internalType": "uint256",
          "name": "",
          "type": "uint256"
        }
      ],
      "name": "applications",
      "outputs": [
        {
          "internalType": "address",
          "name": "applicant",
          "type": "address"
        },
        {
          "internalType": "string",
          "name": "coverLetter",
          "type": "string"
        },
        {
          "internalType": "bool",
          "name": "isAccepted",
          "type": "bool"
        }
      ],
      "stateMutability": "view",
      "type": "function"
    },
    {
      "inputs": [
        {
          "internalType": "uint256",
          "name": "jobId",
          "type": "uint256"
        },
        {
          "internalType": "string",
          "name": "coverLetter",
          "type": "string"
        }
      ],
      "name": "applyForJob",
      "outputs": [],
      "stateMutability": "nonpayable",
      "type": "function"
    },
    {
      "inputs": [
        {
          "internalType": "uint256",
          "name": "jobId",
          "type": "uint256"
        }
      ],
      "name": "getApplicationsForJob",
      "outputs": [
        {
          "internalType": "address[]",
          "name": "addrs",
          "type": "address[]"
        },
        {
          "internalType": "string[]",
          "name": "letters",
          "type": "string[]"
        },
        {
          "internalType": "bool[]",
          "name": "accepted",
          "type": "bool[]"
        }
      ],
      "stateMutability": "view",
      "type": "function"
    },
    {
      "inputs": [],
      "name": "jobCount",
      "outputs": [
        {
          "internalType": "uint256",
          "name": "",
          "type": "uint256"
        }
      ],
      "stateMutability": "view",
      "type": "function"
    },
    {
      "inputs": [
        {
          "internalType": "uint256",
          "name": "",
          "type": "uint256"
        }
      ],
      "name": "jobs",
      "outputs": [
        {
          "internalType": "uint256",
          "name": "id",
          "type": "uint256"
        },
        {
          "internalType": "address",
          "name": "employer",
          "type": "address"
        },
        {
          "internalType": "string",
          "name": "title",
          "type": "string"
        },
        {
          "internalType": "string",
          "name": "description",
          "type": "string"
        },
        {
          "internalType": "uint256",
          "name": "paymentAmount",
          "type": "uint256"
        },
        {
          "internalType": "bool",
          "name": "isActive",
          "type": "bool"
        }
      ],
      "stateMutability": "view",
      "type": "function"
    },
    {
      "inputs": [
        {
          "internalType": "string",
          "name": "title",
          "type": "string"
        },
        {
          "internalType": "string",
          "name": "description",
          "type": "string"
        },
        {
          "internalType": "uint256",
          "name": "paymentAmount",
          "type": "uint256"
        }
      ],
      "name": "postJob",
      "outputs": [],
      "stateMutability": "nonpayable",
      "type": "function"
    },
    {
      "inputs": [],
      "name": "reputationSystem",
      "outputs": [
        {
          "internalType": "contract ReputationSystem",
          "name": "",
          "type": "address"
        }
      ],
      "stateMutability": "view",
      "type": "function"
    }
  ],
  "bytecode": "0x608060405234801561001057600080fd5b50604051611c3c380380611c3c833981810160405281019061003291906100db565b806000806101000a81548173ffffffffffffffffffffffffffffffffffffffff021916908373ffffffffffffffffffffffffffffffffffffffff16021790555050610108565b600080fd5b600073ffffffffffffffffffffffffffffffffffffffff82169050919050565b60006100a88261007d565b9050919050565b6100b88161009d565b81146100c357600080fd5b50565b6000815190506100d5816100af565b92915050565b6000602082840312156100f1576100f0610078565b5b60006100ff848285016100c6565b91505092915050565b611b25806101176000396000f3fe60806040526004361061007b5760003560e01c80636587eda11161004e5780636587eda1146101555780636c09a5e3146101805780637a870b63146101a957806383f67f6e146101e85761007b565b8063180aedf3146100805780634c5d8a0f146100c25780634d91e57d146100ed5780635c3b9c4a1461012c575b600080fd5b34801561008c57600080fd5b506100a760048036038101906100a29190610d6f565b610204565b6040516100b996959493929190610e97565b60405180910390f35b3480156100ce57600080fd5b506100d761037d565b6040516100e49190610f06565b60405180910390f35b3480156100f957600080fd5b50610114600480360381019061010f9190610d6f565b610383565b604051610123939291906111a9565b60405180910390f35b34801561013857600080fd5b50610153600480360381019061014e919061132a565b610664565b005b34801561016157600080fd5b5061016a610789565b6040516101779190611414565b60405180910390f35b34801561018c57600080fd5b506101a760048036038101906101a2919061142f565b6107ad565b005b3480156101b557600080fd5b506101d060048036038101906101cb919061148b565b610903565b6040516101df939291906114cb565b60405180910390f35b61020260048036038101906101fd919061148b565b6109ff565b005b60026020528060005260406000206000915090508060000154908060010160009054906101000a900473ffffffffffffffffffffffffffffffffffffffff169080600201805461025390611538565b80601f016020809104026020016040519081016040528092919081815260200182805461027f90611538565b80156102cc5780601f106102a1576101008083540402835291602001916102cc565b820191906000526020600020905b8154815290600101906020018083116102af57829003601f168201915b5050505050908060030180546102e190611538565b80601f016020809104026020016040519081016040528092919081815260200182805461030d90611538565b801561035a5780601f1061032f5761010080835404028352916020019161035a565b820191906000526020600020905b81548152906001019060200180831161033d57829003601f168201915b5050505050908060040154908060050160009054906101000a900460ff16905086565b60015481565b606080606060006003600086815260200190815260200160002090506000818054905090508067ffffffffffffffff8111156103c2576103c16111ff565b5b6040519080825280602002602001820160405280156103f05781602001602082028036833780820191505090505b5094508067ffffffffffffffff81111561040d5761040c6111ff565b5b60405190808252806020026020018201604052801561044057816020015b606081526020019060019003908161042b5790505b5093508067ffffffffffffffff81111561045d5761045c6111ff565b5b60405190808252806020026020018201604052801561048b5781602001602082028036833780820191505090505b50925060005b8181101561065a578281815481106104ac576104ab611569565b5b906000526020600020906003020160000160009054906101000a900473ffffffffffffffffffffffffffffffffffffffff168682815181106104f1576104f0611569565b5b602002602001019073ffffffffffffffffffffffffffffffffffffffff16908173ffffffffffffffffffffffffffffffffffffffff168152505082818154811061053e5761053d611569565b5b9060005260206000209060030201600101805461055a90611538565b80601f016020809104026020016040519081016040528092919081815260200182805461058690611538565b80156105d35780601f106105a8576101008083540402835291602001916105d3565b820191906000526020600020905b8154815290600101906020018083116105b657829003601f168201915b50505050508582815181106105eb576105ea611569565b5b602002602001018190525082818154811061060957610608611569565b5b906000526020600020906003020160020160009054906101000a900460ff1684828151811061063b5761063a611569565b5b6020026020010190151590811515815250508080600101915050610491565b5050509193909250565b600180600082825461067691906115c7565b925050819055506040518060c0016040528060015481526020013373ffffffffffffffffffffffffffffffffffffffff168152602001848152602001838152602001828152602001600115158152506002600060015481526020019081526020016000206000820151816000015560208201518160010160006101000a81548173ffffffffffffffffffffffffffffffffffffffff021916908373ffffffffffffffffffffffffffffffffffffffff1602179055506040820151816002019081610740919061179d565b506060820151816003019081610756919061179d565b506080820151816004015560a08201518160050160006101000a81548160ff021916908315150217905550905050505050565b60008054906101000a900473ffffffffffffffffffffffffffffffffffffffff1681565b6002600083815260200190815260200160002060050160009054906101000a900460ff16610810576040517f08c379a0000000000000000000000000000000000000000000000000000000008152600401610807906118bb565b60405180910390fd5b6003600083815260200190815260200160002060405180606001604052803373ffffffffffffffffffffffffffffffffffffffff16815260200183815260200160001515815250908060018154018082558091505060019003906000526020600020906003020160009091909190915060008201518160000160006101000a81548173ffffffffffffffffffffffffffffffffffffffff021916908373ffffffffffffffffffffffffffffffffffffffff16021790555060208201518160010190816108dc919061179d565b5060408201518160020160006101000a81548160ff02191690831515021790555050505050565b6003602052816000526040600020818154811061091f57600080fd5b9060005260206000209060030201600091509150508060000160009054906101000a900473ffffffffffffffffffffffffffffffffffffffff169080600101805461096990611538565b80601f016020809104026020016040519081016040528092919081815260200182805461099590611538565b80156109e25780601f106109b7576101008083540402835291602001916109e2565b820191906000526020600020905b8154815290600101906020018083116109c557829003601f168201915b5050505050908060020160009054906101000a900460ff16905083565b60006002600084815260200190815260200160002090508060010160009054906101000a900473ffffffffffffffffffffffffffffffffffffffff1673ffffffffffffffffffffffffffffffffffffffff163373ffffffffffffffffffffffffffffffffffffffff1614610aa8576040517f08c379a0000000000000000000000000000000000000000000000000000000008152600401610a9f90611927565b60405180910390fd5b8060050160009054906101000a900460ff16610af9576040517f08c379a0000000000000000000000000000000000000000000000000000000008152600401610af090611993565b60405180910390fd5b6000600360008581526020019081526020016000208381548110610b2057610b1f611569565b5b906000526020600020906003020190508060020160009054906101000a900460ff1615610b82576040517f08c379a0000000000000000000000000000000000000000000000000000000008152600401610b79906119ff565b60405180910390fd5b60018160020160006101000a81548160ff02191690831515021790555060008260050160006101000a81548160ff02191690831515021790555081600401543414610c02576040517f08c379a0000000000000000000000000000000000000000000000000000000008152600401610bf990611a6b565b60405180910390fd5b8060000160009054906101000a900473ffffffffffffffffffffffffffffffffffffffff1673ffffffffffffffffffffffffffffffffffffffff166108fc349081150290604051600060405180830381858888f19350505050158015610c6c573d6000803e3d6000fd5b5060008054906101000a900473ffffffffffffffffffffffffffffffffffffffff1673ffffffffffffffffffffffffffffffffffffffff1663ded86d688260000160009054906101000a900473ffffffffffffffffffffffffffffffffffffffff1660016040518363ffffffff1660e01b8152600401610ced929190611ac6565b600060405180830381600087803b158015610d0757600080fd5b505af1158015610d1b573d6000803e3d6000fd5b5050505050505050565b6000604051905090565b600080fd5b600080fd5b6000819050919050565b610d4c81610d39565b8114610d5757600080fd5b50565b600081359050610d6981610d43565b92915050565b600060208284031215610d8557610d84610d2f565b5b6000610d9384828501610d5a565b91505092915050565b610da581610d39565b82525050565b600073ffffffffffffffffffffffffffffffffffffffff82169050919050565b6000610dd682610dab565b9050919050565b610de681610dcb565b82525050565b600081519050919050565b600082825260208201905092915050565b60005b83811015610e26578082015181840152602081019050610e0b565b60008484015250505050565b6000601f19601f8301169050919050565b6000610e4e82610dec565b610e588185610df7565b9350610e68818560208601610e08565b610e7181610e32565b840191505092915050565b60008115159050919050565b610e9181610e7c565b82525050565b600060c082019050610eac6000830189610d9c565b610eb96020830188610ddd565b8181036040830152610ecb8187610e43565b90508181036060830152610edf8186610e43565b9050610eee6080830185610d9c565b610efb60a0830184610e88565b979650505050505050565b6000602082019050610f1b6000830184610d9c565b92915050565b600081519050919050565b600082825260208201905092915050565b6000819050602082019050919050565b610f5681610dcb565b82525050565b6000610f688383610f4d565b60208301905092915050565b6000602082019050919050565b6000610f8c82610f21565b610f968185610f2c565b9350610fa183610f3d565b8060005b83811015610fd2578151610fb98882610f5c565b9750610fc483610f74565b925050600181019050610fa5565b5085935050505092915050565b600081519050919050565b600082825260208201905092915050565b6000819050602082019050919050565b600082825260208201905092915050565b600061102782610dec565b611031818561100b565b9350611041818560208601610e08565b61104a81610e32565b840191505092915050565b6000611061838361101c565b905092915050565b6000602082019050919050565b600061108182610fdf565b61108b8185610fea565b93508360208202850161109d85610ffb565b8060005b858110156110d957848403895281516110ba8582611055565b94506110c583611069565b925060208a019950506001810190506110a1565b50829750879550505050505092915050565b600081519050919050565b600082825260208201905092915050565b6000819050602082019050919050565b61112081610e7c565b82525050565b60006111328383611117565b60208301905092915050565b6000602082019050919050565b6000611156826110eb565b61116081856110f6565b935061116b83611107565b8060005b8381101561119c5781516111838882611126565b975061118e8361113e565b92505060018101905061116f565b5085935050505092915050565b600060608201905081810360008301526111c38186610f81565b905081810360208301526111d78185611076565b905081810360408301526111eb818461114b565b9050949350505050565b600080fd5b600080fd5b7f4e487b7100000000000000000000000000000000000000000000000000000000600052604160045260246000fd5b61123782610e32565b810181811067ffffffffffffffff82111715611256576112556111ff565b5b80604052505050565b6000611269610d25565b9050611275828261122e565b919050565b600067ffffffffffffffff821115611295576112946111ff565b5b61129e82610e32565b9050602081019050919050565b82818337600083830152505050565b60006112cd6112c88461127a565b61125f565b9050828152602081018484840111156112e9576112e86111fa565b5b6112f48482856112ab565b509392505050565b600082601f830112611311576113106111f5565b5b81356113218482602086016112ba565b91505092915050565b60008060006060848603121561134357611342610d2f565b5b600084013567ffffffffffffffff81111561136157611360610d34565b5b61136d868287016112fc565b935050602084013567ffffffffffffffff81111561138e5761138d610d34565b5b61139a868287016112fc565b92505060406113ab86828701610d5a565b9150509250925092565b6000819050919050565b60006113da6113d56113d084610dab565b6113b5565b610dab565b9050919050565b60006113ec826113bf565b9050919050565b60006113fe826113e1565b9050919050565b61140e816113f3565b82525050565b60006020820190506114296000830184611405565b92915050565b6000806040838503121561144657611445610d2f565b5b600061145485828601610d5a565b925050602083013567ffffffffffffffff81111561147557611474610d34565b5b611481858286016112fc565b9150509250929050565b600080604083850312156114a2576114a1610d2f565b5b60006114b085828601610d5a565b92505060206114c185828601610d5a565b9150509250929050565b60006060820190506114e06000830186610ddd565b81810360208301526114f28185610e43565b90506115016040830184610e88565b949350505050565b7f4e487b7100000000000000000000000000000000000000000000000000000000600052602260045260246000fd5b6000600282049050600182168061155057607f821691505b60208210810361156357611562611509565b5b50919050565b7f4e487b7100000000000000000000000000000000000000000000000000000000600052603260045260246000fd5b7f4e487b7100000000000000000000000000000000000000000000000000000000600052601160045260246000fd5b60006115d282610d39565b91506115dd83610d39565b92508282019050808211156115f5576115f4611598565b5b92915050565b60008190508160005260206000209050919050565b60006020601f8301049050919050565b600082821b905092915050565b60006008830261165d7fffffffffffffffffffffffffffffffffffffffffffffffffffffffffffffffff82611620565b6116678683611620565b95508019841693508086168417925050509392505050565b600061169a61169561169084610d39565b6113b5565b610d39565b9050919050565b6000819050919050565b6116b48361167f565b6116c86116c0826116a1565b84845461162d565b825550505050565b600090565b6116dd6116d0565b6116e88184846116ab565b505050565b5b8181101561170c576117016000826116d5565b6001810190506116ee565b5050565b601f82111561175157611722816115fb565b61172b84611610565b8101602085101561173a578190505b61174e61174685611610565b8301826116ed565b50505b505050565b600082821c905092915050565b600061177460001984600802611756565b1980831691505092915050565b600061178d8383611763565b9150826002028217905092915050565b6117a682610dec565b67ffffffffffffffff8111156117bf576117be6111ff565b5b6117c98254611538565b6117d4828285611710565b600060209050601f83116001811461180757600084156117f5578287015190505b6117ff8582611781565b865550611867565b601f198416611815866115fb565b60005b8281101561183d57848901518255600182019150602085019450602081019050611818565b8683101561185a5784890151611856601f891682611763565b8355505b6001600288020188555050505b505050505050565b7f4a6f62206e6f7420616374697665000000000000000000000000000000000000600082015250565b60006118a5600e83610df7565b91506118b08261186f565b602082019050919050565b600060208201905081810360008301526118d481611898565b9050919050565b7f4f6e6c7920656d706c6f79657200000000000000000000000000000000000000600082015250565b6000611911600d83610df7565b915061191c826118db565b602082019050919050565b6000602082019050818103600083015261194081611904565b9050919050565b7f416c726561647920636c6f736564000000000000000000000000000000000000600082015250565b600061197d600e83610df7565b915061198882611947565b602082019050919050565b600060208201905081810360008301526119ac81611970565b9050919050565b7f416c726561647920616363657074656400000000000000000000000000000000600082015250565b60006119e9601083610df7565b91506119f4826119b3565b602082019050919050565b60006020820190508181036000830152611a18816119dc565b9050919050565b7f57726f6e672076616c7565000000000000000000000000000000000000000000600082015250565b6000611a55600b83610df7565b9150611a6082611a1f565b602082019050919050565b60006020820190508181036000830152611a8481611a48565b9050919050565b6000819050919050565b6000611ab0611aab611aa684611a8b565b6113b5565b610d39565b9050919050565b611ac081611a95565b82525050565b6000604082019050611adb6000830185610ddd565b611ae86020830184611ab7565b939250505056fea264697066735822122048d9d52a91b3b66810275abf5024bdd3db1241f6f136e0f8a090fa5fa84a36fc64736f6c634300081c0033",
  "linkReferences": {},
  "deployedLinkReferences": {}
}