{
  "_format": "hh-sol-artifact-1",
  "contractName": "JobBoard",
  "sourceName": "contracts/jobBoard.sol",
  "abi": [
    {
      "inputs": [
        {
          "internalType": "address",
          "name": "_reputationSystem",
          "type": "address"
        }
      ],
      "stateMutability": "nonpayable",
      "type": "constructor"
    },
    {
      "anonymous": false,
      "inputs": [
        {
          "indexed": true,
          "internalType": "uint256",
          "name": "jobId",
          "type": "uint256"
        },
        {
          "indexed": true,
          "internalType": "address",
          "name": "applicant",
          "type": "address"
        },
        {
          "indexed": false,
          "internalType": "uint256",
          "name": "paymentAmount",
          "type": "uint256"
        }
      ],
      "name": "JobAccepted",
      "type": "event"
    },
    {
      "anonymous": false,
      "inputs": [
        {
          "indexed": true,
          "internalType": "uint256",
          "name": "jobId",
          "type": "uint256"
        },
        {
          "indexed": true,
          "internalType": "address",
          "name": "applicant",
          "type": "address"
        },
        {
          "indexed": false,
          "internalType": "string",
          "name": "coverLetter",
          "type": "string"
        }
      ],
      "name": "JobApplied",
      "type": "event"
    },
    {
      "anonymous": false,
      "inputs": [
        {
          "indexed": true,
          "internalType": "uint256",
          "name": "jobId",
          "type": "uint256"
        },
        {
          "indexed": true,
          "internalType": "address",
          "name": "employer",
          "type": "address"
        },
        {
          "indexed": false,
          "internalType": "string",
          "name": "title",
          "type": "string"
        },
        {
          "indexed": false,
          "internalType": "uint256",
          "name": "paymentAmount",
          "type": "uint256"
        }
      ],
      "name": "JobPosted",
      "type": "event"
    },
    {
      "inputs": [
        {
          "internalType": "uint256",
          "name": "jobId",
          "type": "uint256"
        },
        {
          "internalType": "uint256",
          "name": "applicationIndex",
          "type": "uint256"
        }
      ],
      "name": "acceptApplication",
      "outputs": [],
      "stateMutability": "payable",
      "type": "function"
    },
    {
      "inputs": [
        {
          "internalType": "uint256",
          "name": "",
          "type": "uint256"
        },
        {
          "internalType": "uint256",
          "name": "",
          "type": "uint256"
        }
      ],
      "name": "applications",
      "outputs": [
        {
          "internalType": "address",
          "name": "applicant",
          "type": "address"
        },
        {
          "internalType": "string",
          "name": "coverLetter",
          "type": "string"
        },
        {
          "internalType": "bool",
          "name": "isAccepted",
          "type": "bool"
        }
      ],
      "stateMutability": "view",
      "type": "function"
    },
    {
      "inputs": [
        {
          "internalType": "uint256",
          "name": "jobId",
          "type": "uint256"
        },
        {
          "internalType": "string",
          "name": "coverLetter",
          "type": "string"
        }
      ],
      "name": "applyForJob",
      "outputs": [],
      "stateMutability": "nonpayable",
      "type": "function"
    },
    {
      "inputs": [],
      "name": "jobCount",
      "outputs": [
        {
          "internalType": "uint256",
          "name": "",
          "type": "uint256"
        }
      ],
      "stateMutability": "view",
      "type": "function"
    },
    {
      "inputs": [
        {
          "internalType": "uint256",
          "name": "",
          "type": "uint256"
        }
      ],
      "name": "jobs",
      "outputs": [
        {
          "internalType": "uint256",
          "name": "id",
          "type": "uint256"
        },
        {
          "internalType": "address",
          "name": "employer",
          "type": "address"
        },
        {
          "internalType": "string",
          "name": "title",
          "type": "string"
        },
        {
          "internalType": "string",
          "name": "description",
          "type": "string"
        },
        {
          "internalType": "uint256",
          "name": "paymentAmount",
          "type": "uint256"
        },
        {
          "internalType": "bool",
          "name": "isActive",
          "type": "bool"
        }
      ],
      "stateMutability": "view",
      "type": "function"
    },
    {
      "inputs": [
        {
          "internalType": "string",
          "name": "title",
          "type": "string"
        },
        {
          "internalType": "string",
          "name": "description",
          "type": "string"
        },
        {
          "internalType": "uint256",
          "name": "paymentAmount",
          "type": "uint256"
        }
      ],
      "name": "postJob",
      "outputs": [],
      "stateMutability": "nonpayable",
      "type": "function"
    },
    {
      "inputs": [],
      "name": "reputationSystem",
      "outputs": [
        {
          "internalType": "contract ReputationSystem",
          "name": "",
          "type": "address"
        }
      ],
      "stateMutability": "view",
      "type": "function"
    }
  ],
  "bytecode": "0x608060405234801561001057600080fd5b506040516117a83803806117a8833981810160405281019061003291906100dc565b80600360006101000a81548173ffffffffffffffffffffffffffffffffffffffff021916908373ffffffffffffffffffffffffffffffffffffffff16021790555050610109565b600080fd5b600073ffffffffffffffffffffffffffffffffffffffff82169050919050565b60006100a98261007e565b9050919050565b6100b98161009e565b81146100c457600080fd5b50565b6000815190506100d6816100b0565b92915050565b6000602082840312156100f2576100f1610079565b5b6000610100848285016100c7565b91505092915050565b611690806101186000396000f3fe6080604052600436106100705760003560e01c80636587eda11161004e5780636587eda11461010b5780636c09a5e3146101365780637a870b631461015f57806383f67f6e1461019e57610070565b8063180aedf3146100755780634c5d8a0f146100b75780635c3b9c4a146100e2575b600080fd5b34801561008157600080fd5b5061009c60048036038101906100979190610b5c565b6101ba565b6040516100ae96959493929190610c84565b60405180910390f35b3480156100c357600080fd5b506100cc610333565b6040516100d99190610cf3565b60405180910390f35b3480156100ee57600080fd5b5061010960048036038101906101049190610e43565b610339565b005b34801561011757600080fd5b506101206104b0565b60405161012d9190610f2d565b60405180910390f35b34801561014257600080fd5b5061015d60048036038101906101589190610f48565b6104d6565b005b34801561016b57600080fd5b5061018660048036038101906101819190610fa4565b61067b565b60405161019593929190610fe4565b60405180910390f35b6101b860048036038101906101b39190610fa4565b610777565b005b60016020528060005260406000206000915090508060000154908060010160009054906101000a900473ffffffffffffffffffffffffffffffffffffffff169080600201805461020990611051565b80601f016020809104026020016040519081016040528092919081815260200182805461023590611051565b80156102825780601f1061025757610100808354040283529160200191610282565b820191906000526020600020905b81548152906001019060200180831161026557829003601f168201915b50505050509080600301805461029790611051565b80601f01602080910402602001604051908101604052809291908181526020018280546102c390611051565b80156103105780601f106102e557610100808354040283529160200191610310565b820191906000526020600020905b8154815290600101906020018083116102f357829003601f168201915b5050505050908060040154908060050160009054906101000a900460ff16905086565b60005481565b600160008082825461034b91906110b1565b925050819055506040518060c0016040528060005481526020013373ffffffffffffffffffffffffffffffffffffffff1681526020018481526020018381526020018281526020016001151581525060016000805481526020019081526020016000206000820151816000015560208201518160010160006101000a81548173ffffffffffffffffffffffffffffffffffffffff021916908373ffffffffffffffffffffffffffffffffffffffff16021790555060408201518160020190816104149190611287565b50606082015181600301908161042a9190611287565b506080820151816004015560a08201518160050160006101000a81548160ff0219169083151502179055509050503373ffffffffffffffffffffffffffffffffffffffff166000547fd347156c0e050f531434f3eac5fc2137040ab077ca656f465275ebe566aaf11585846040516104a3929190611359565b60405180910390a3505050565b600360009054906101000a900473ffffffffffffffffffffffffffffffffffffffff1681565b6001600083815260200190815260200160002060050160009054906101000a900460ff16610539576040517f08c379a0000000000000000000000000000000000000000000000000000000008152600401610530906113d5565b60405180910390fd5b6002600083815260200190815260200160002060405180606001604052803373ffffffffffffffffffffffffffffffffffffffff16815260200183815260200160001515815250908060018154018082558091505060019003906000526020600020906003020160009091909190915060008201518160000160006101000a81548173ffffffffffffffffffffffffffffffffffffffff021916908373ffffffffffffffffffffffffffffffffffffffff16021790555060208201518160010190816106059190611287565b5060408201518160020160006101000a81548160ff02191690831515021790555050503373ffffffffffffffffffffffffffffffffffffffff16827fdade408e5cd612a74423eb497e77aa7bf6749f2d6e0906d1cba11c6d1bad19648360405161066f91906113f5565b60405180910390a35050565b6002602052816000526040600020818154811061069757600080fd5b9060005260206000209060030201600091509150508060000160009054906101000a900473ffffffffffffffffffffffffffffffffffffffff16908060010180546106e190611051565b80601f016020809104026020016040519081016040528092919081815260200182805461070d90611051565b801561075a5780601f1061072f5761010080835404028352916020019161075a565b820191906000526020600020905b81548152906001019060200180831161073d57829003601f168201915b5050505050908060020160009054906101000a900460ff16905083565b60006001600084815260200190815260200160002090508060010160009054906101000a900473ffffffffffffffffffffffffffffffffffffffff1673ffffffffffffffffffffffffffffffffffffffff163373ffffffffffffffffffffffffffffffffffffffff1614610820576040517f08c379a000000000000000000000000000000000000000000000000000000000815260040161081790611463565b60405180910390fd5b8060050160009054906101000a900460ff16610871576040517f08c379a0000000000000000000000000000000000000000000000000000000008152600401610868906114cf565b60405180910390fd5b6000600260008581526020019081526020016000208381548110610898576108976114ef565b5b906000526020600020906003020190508060020160009054906101000a900460ff16156108fa576040517f08c379a00000000000000000000000000000000000000000000000000000000081526004016108f19061156a565b60405180910390fd5b60018160020160006101000a81548160ff02191690831515021790555060008260050160006101000a81548160ff0219169083151502179055508160040154341461097a576040517f08c379a0000000000000000000000000000000000000000000000000000000008152600401610971906115d6565b60405180910390fd5b8060000160009054906101000a900473ffffffffffffffffffffffffffffffffffffffff1673ffffffffffffffffffffffffffffffffffffffff166108fc349081150290604051600060405180830381858888f193505050501580156109e4573d6000803e3d6000fd5b50600360009054906101000a900473ffffffffffffffffffffffffffffffffffffffff1673ffffffffffffffffffffffffffffffffffffffff1663ded86d688260000160009054906101000a900473ffffffffffffffffffffffffffffffffffffffff1660016040518363ffffffff1660e01b8152600401610a67929190611631565b600060405180830381600087803b158015610a8157600080fd5b505af1158015610a95573d6000803e3d6000fd5b505050508060000160009054906101000a900473ffffffffffffffffffffffffffffffffffffffff1673ffffffffffffffffffffffffffffffffffffffff16847f3dd4928560f1aee6156570e82745e8f638e22a59b215d3cd549c53a32708b0e634604051610b049190610cf3565b60405180910390a350505050565b6000604051905090565b600080fd5b600080fd5b6000819050919050565b610b3981610b26565b8114610b4457600080fd5b50565b600081359050610b5681610b30565b92915050565b600060208284031215610b7257610b71610b1c565b5b6000610b8084828501610b47565b91505092915050565b610b9281610b26565b82525050565b600073ffffffffffffffffffffffffffffffffffffffff82169050919050565b6000610bc382610b98565b9050919050565b610bd381610bb8565b82525050565b600081519050919050565b600082825260208201905092915050565b60005b83811015610c13578082015181840152602081019050610bf8565b60008484015250505050565b6000601f19601f8301169050919050565b6000610c3b82610bd9565b610c458185610be4565b9350610c55818560208601610bf5565b610c5e81610c1f565b840191505092915050565b60008115159050919050565b610c7e81610c69565b82525050565b600060c082019050610c996000830189610b89565b610ca66020830188610bca565b8181036040830152610cb88187610c30565b90508181036060830152610ccc8186610c30565b9050610cdb6080830185610b89565b610ce860a0830184610c75565b979650505050505050565b6000602082019050610d086000830184610b89565b92915050565b600080fd5b600080fd5b7f4e487b7100000000000000000000000000000000000000000000000000000000600052604160045260246000fd5b610d5082610c1f565b810181811067ffffffffffffffff82111715610d6f57610d6e610d18565b5b80604052505050565b6000610d82610b12565b9050610d8e8282610d47565b919050565b600067ffffffffffffffff821115610dae57610dad610d18565b5b610db782610c1f565b9050602081019050919050565b82818337600083830152505050565b6000610de6610de184610d93565b610d78565b905082815260208101848484011115610e0257610e01610d13565b5b610e0d848285610dc4565b509392505050565b600082601f830112610e2a57610e29610d0e565b5b8135610e3a848260208601610dd3565b91505092915050565b600080600060608486031215610e5c57610e5b610b1c565b5b600084013567ffffffffffffffff811115610e7a57610e79610b21565b5b610e8686828701610e15565b935050602084013567ffffffffffffffff811115610ea757610ea6610b21565b5b610eb386828701610e15565b9250506040610ec486828701610b47565b9150509250925092565b6000819050919050565b6000610ef3610eee610ee984610b98565b610ece565b610b98565b9050919050565b6000610f0582610ed8565b9050919050565b6000610f1782610efa565b9050919050565b610f2781610f0c565b82525050565b6000602082019050610f426000830184610f1e565b92915050565b60008060408385031215610f5f57610f5e610b1c565b5b6000610f6d85828601610b47565b925050602083013567ffffffffffffffff811115610f8e57610f8d610b21565b5b610f9a85828601610e15565b9150509250929050565b60008060408385031215610fbb57610fba610b1c565b5b6000610fc985828601610b47565b9250506020610fda85828601610b47565b9150509250929050565b6000606082019050610ff96000830186610bca565b818103602083015261100b8185610c30565b905061101a6040830184610c75565b949350505050565b7f4e487b7100000000000000000000000000000000000000000000000000000000600052602260045260246000fd5b6000600282049050600182168061106957607f821691505b60208210810361107c5761107b611022565b5b50919050565b7f4e487b7100000000000000000000000000000000000000000000000000000000600052601160045260246000fd5b60006110bc82610b26565b91506110c783610b26565b92508282019050808211156110df576110de611082565b5b92915050565b60008190508160005260206000209050919050565b60006020601f8301049050919050565b600082821b905092915050565b6000600883026111477fffffffffffffffffffffffffffffffffffffffffffffffffffffffffffffffff8261110a565b611151868361110a565b95508019841693508086168417925050509392505050565b600061118461117f61117a84610b26565b610ece565b610b26565b9050919050565b6000819050919050565b61119e83611169565b6111b26111aa8261118b565b848454611117565b825550505050565b600090565b6111c76111ba565b6111d2818484611195565b505050565b5b818110156111f6576111eb6000826111bf565b6001810190506111d8565b5050565b601f82111561123b5761120c816110e5565b611215846110fa565b81016020851015611224578190505b611238611230856110fa565b8301826111d7565b50505b505050565b600082821c905092915050565b600061125e60001984600802611240565b1980831691505092915050565b6000611277838361124d565b9150826002028217905092915050565b61129082610bd9565b67ffffffffffffffff8111156112a9576112a8610d18565b5b6112b38254611051565b6112be8282856111fa565b600060209050601f8311600181146112f157600084156112df578287015190505b6112e9858261126b565b865550611351565b601f1984166112ff866110e5565b60005b8281101561132757848901518255600182019150602085019450602081019050611302565b868310156113445784890151611340601f89168261124d565b8355505b6001600288020188555050505b505050505050565b600060408201905081810360008301526113738185610c30565b90506113826020830184610b89565b9392505050565b7f4a6f62206973206e6f7420616374697665000000000000000000000000000000600082015250565b60006113bf601183610be4565b91506113ca82611389565b602082019050919050565b600060208201905081810360008301526113ee816113b2565b9050919050565b6000602082019050818103600083015261140f8184610c30565b905092915050565b7f4f6e6c7920656d706c6f79657200000000000000000000000000000000000000600082015250565b600061144d600d83610be4565b915061145882611417565b602082019050919050565b6000602082019050818103600083015261147c81611440565b9050919050565b7f416c726561647920636c6f736564000000000000000000000000000000000000600082015250565b60006114b9600e83610be4565b91506114c482611483565b602082019050919050565b600060208201905081810360008301526114e8816114ac565b9050919050565b7f4e487b7100000000000000000000000000000000000000000000000000000000600052603260045260246000fd5b7f416c726561647920616363657074656400000000000000000000000000000000600082015250565b6000611554601083610be4565b915061155f8261151e565b602082019050919050565b6000602082019050818103600083015261158381611547565b9050919050565b7f496e636f7272656374207061796d656e74000000000000000000000000000000600082015250565b60006115c0601183610be4565b91506115cb8261158a565b602082019050919050565b600060208201905081810360008301526115ef816115b3565b9050919050565b6000819050919050565b600061161b611616611611846115f6565b610ece565b610b26565b9050919050565b61162b81611600565b82525050565b60006040820190506116466000830185610bca565b6116536020830184611622565b939250505056fea2646970667358221220eb86ff70ac254c839960424c7ccb866e11f1673952025d30fff7f86943fb268f64736f6c634300081c0033",
  "linkReferences": {},
  "deployedLinkReferences": {}
}