{
  "_format": "hh-sol-artifact-1",
  "contractName": "JobBoard",
  "sourceName": "contracts/jobBoard.sol",
  "abi": [
    {
      "anonymous": false,
      "inputs": [
        {
          "indexed": true,
          "internalType": "uint256",
          "name": "jobId",
          "type": "uint256"
        },
        {
          "indexed": true,
          "internalType": "address",
          "name": "employer",
          "type": "address"
        },
        {
          "indexed": true,
          "internalType": "address",
          "name": "applicant",
          "type": "address"
        },
        {
          "indexed": false,
          "internalType": "uint256",
          "name": "paymentAmount",
          "type": "uint256"
        }
      ],
      "name": "JobAccepted",
      "type": "event"
    },
    {
      "anonymous": false,
      "inputs": [
        {
          "indexed": true,
          "internalType": "uint256",
          "name": "jobId",
          "type": "uint256"
        },
        {
          "indexed": true,
          "internalType": "address",
          "name": "applicant",
          "type": "address"
        },
        {
          "indexed": false,
          "internalType": "string",
          "name": "coverLetter",
          "type": "string"
        }
      ],
      "name": "JobApplied",
      "type": "event"
    },
    {
      "anonymous": false,
      "inputs": [
        {
          "indexed": true,
          "internalType": "uint256",
          "name": "jobId",
          "type": "uint256"
        },
        {
          "indexed": true,
          "internalType": "address",
          "name": "employer",
          "type": "address"
        },
        {
          "indexed": false,
          "internalType": "string",
          "name": "title",
          "type": "string"
        },
        {
          "indexed": false,
          "internalType": "uint256",
          "name": "paymentAmount",
          "type": "uint256"
        }
      ],
      "name": "JobPosted",
      "type": "event"
    },
    {
      "inputs": [
        {
          "internalType": "uint256",
          "name": "jobId",
          "type": "uint256"
        },
        {
          "internalType": "uint256",
          "name": "applicationIndex",
          "type": "uint256"
        }
      ],
      "name": "acceptApplication",
      "outputs": [],
      "stateMutability": "payable",
      "type": "function"
    },
    {
      "inputs": [],
      "name": "applicationCount",
      "outputs": [
        {
          "internalType": "uint256",
          "name": "",
          "type": "uint256"
        }
      ],
      "stateMutability": "view",
      "type": "function"
    },
    {
      "inputs": [
        {
          "internalType": "uint256",
          "name": "",
          "type": "uint256"
        },
        {
          "internalType": "uint256",
          "name": "",
          "type": "uint256"
        }
      ],
      "name": "applications",
      "outputs": [
        {
          "internalType": "address",
          "name": "applicant",
          "type": "address"
        },
        {
          "internalType": "uint256",
          "name": "jobId",
          "type": "uint256"
        },
        {
          "internalType": "string",
          "name": "coverLetter",
          "type": "string"
        },
        {
          "internalType": "bool",
          "name": "isAccepted",
          "type": "bool"
        }
      ],
      "stateMutability": "view",
      "type": "function"
    },
    {
      "inputs": [
        {
          "internalType": "uint256",
          "name": "jobId",
          "type": "uint256"
        },
        {
          "internalType": "string",
          "name": "coverLetter",
          "type": "string"
        }
      ],
      "name": "applyForJob",
      "outputs": [],
      "stateMutability": "nonpayable",
      "type": "function"
    },
    {
      "inputs": [
        {
          "internalType": "uint256",
          "name": "jobId",
          "type": "uint256"
        }
      ],
      "name": "deactivateJob",
      "outputs": [],
      "stateMutability": "nonpayable",
      "type": "function"
    },
    {
      "inputs": [],
      "name": "jobCount",
      "outputs": [
        {
          "internalType": "uint256",
          "name": "",
          "type": "uint256"
        }
      ],
      "stateMutability": "view",
      "type": "function"
    },
    {
      "inputs": [
        {
          "internalType": "uint256",
          "name": "",
          "type": "uint256"
        }
      ],
      "name": "jobs",
      "outputs": [
        {
          "internalType": "uint256",
          "name": "id",
          "type": "uint256"
        },
        {
          "internalType": "address",
          "name": "employer",
          "type": "address"
        },
        {
          "internalType": "string",
          "name": "title",
          "type": "string"
        },
        {
          "internalType": "string",
          "name": "description",
          "type": "string"
        },
        {
          "internalType": "uint256",
          "name": "paymentAmount",
          "type": "uint256"
        },
        {
          "internalType": "bool",
          "name": "isActive",
          "type": "bool"
        }
      ],
      "stateMutability": "view",
      "type": "function"
    },
    {
      "inputs": [
        {
          "internalType": "string",
          "name": "title",
          "type": "string"
        },
        {
          "internalType": "string",
          "name": "description",
          "type": "string"
        },
        {
          "internalType": "uint256",
          "name": "paymentAmount",
          "type": "uint256"
        }
      ],
      "name": "postJob",
      "outputs": [],
      "stateMutability": "nonpayable",
      "type": "function"
    }
  ],
  "bytecode": "0x6080604052600080556000600155348015601857600080fd5b506115aa806100286000396000f3fe60806040526004361061007b5760003560e01c80636c09a5e31161004e5780636c09a5e31461013f5780637a870b631461016857806383f67f6e146101a8578063e2aad4a0146101c45761007b565b8063180aedf314610080578063366d2a4b146100c25780634c5d8a0f146100eb5780635c3b9c4a14610116575b600080fd5b34801561008c57600080fd5b506100a760048036038101906100a29190610b48565b6101ef565b6040516100b996959493929190610c70565b60405180910390f35b3480156100ce57600080fd5b506100e960048036038101906100e49190610b48565b610368565b005b3480156100f757600080fd5b5061010061043e565b60405161010d9190610cdf565b60405180910390f35b34801561012257600080fd5b5061013d60048036038101906101389190610e2f565b610444565b005b34801561014b57600080fd5b5061016660048036038101906101619190610eba565b6105b9565b005b34801561017457600080fd5b5061018f600480360381019061018a9190610f16565b610786565b60405161019f9493929190610f56565b60405180910390f35b6101c260048036038101906101bd9190610f16565b610888565b005b3480156101d057600080fd5b506101d9610af8565b6040516101e69190610cdf565b60405180910390f35b60026020528060005260406000206000915090508060000154908060010160009054906101000a900473ffffffffffffffffffffffffffffffffffffffff169080600201805461023e90610fd1565b80601f016020809104026020016040519081016040528092919081815260200182805461026a90610fd1565b80156102b75780601f1061028c576101008083540402835291602001916102b7565b820191906000526020600020905b81548152906001019060200180831161029a57829003601f168201915b5050505050908060030180546102cc90610fd1565b80601f01602080910402602001604051908101604052809291908181526020018280546102f890610fd1565b80156103455780601f1061031a57610100808354040283529160200191610345565b820191906000526020600020905b81548152906001019060200180831161032857829003601f168201915b5050505050908060040154908060050160009054906101000a900460ff16905086565b6002600082815260200190815260200160002060010160009054906101000a900473ffffffffffffffffffffffffffffffffffffffff1673ffffffffffffffffffffffffffffffffffffffff163373ffffffffffffffffffffffffffffffffffffffff161461040c576040517f08c379a000000000000000000000000000000000000000000000000000000000815260040161040390611074565b60405180910390fd5b60006002600083815260200190815260200160002060050160006101000a81548160ff02191690831515021790555050565b60005481565b600080815480929190610456906110c3565b91905055506040518060c0016040528060005481526020013373ffffffffffffffffffffffffffffffffffffffff1681526020018481526020018381526020018281526020016001151581525060026000805481526020019081526020016000206000820151816000015560208201518160010160006101000a81548173ffffffffffffffffffffffffffffffffffffffff021916908373ffffffffffffffffffffffffffffffffffffffff160217905550604082015181600201908161051d91906112b7565b50606082015181600301908161053391906112b7565b506080820151816004015560a08201518160050160006101000a81548160ff0219169083151502179055509050503373ffffffffffffffffffffffffffffffffffffffff166000547fd347156c0e050f531434f3eac5fc2137040ab077ca656f465275ebe566aaf11585846040516105ac929190611389565b60405180910390a3505050565b6002600083815260200190815260200160002060050160009054906101000a900460ff1661061c576040517f08c379a000000000000000000000000000000000000000000000000000000000815260040161061390611405565b60405180910390fd5b6001600081548092919061062f906110c3565b91905055506003600083815260200190815260200160002060405180608001604052803373ffffffffffffffffffffffffffffffffffffffff16815260200184815260200183815260200160001515815250908060018154018082558091505060019003906000526020600020906004020160009091909190915060008201518160000160006101000a81548173ffffffffffffffffffffffffffffffffffffffff021916908373ffffffffffffffffffffffffffffffffffffffff16021790555060208201518160010155604082015181600201908161071091906112b7565b5060608201518160030160006101000a81548160ff02191690831515021790555050503373ffffffffffffffffffffffffffffffffffffffff16827fdade408e5cd612a74423eb497e77aa7bf6749f2d6e0906d1cba11c6d1bad19648360405161077a9190611425565b60405180910390a35050565b600360205281600052604060002081815481106107a257600080fd5b9060005260206000209060040201600091509150508060000160009054906101000a900473ffffffffffffffffffffffffffffffffffffffff16908060010154908060020180546107f290610fd1565b80601f016020809104026020016040519081016040528092919081815260200182805461081e90610fd1565b801561086b5780601f106108405761010080835404028352916020019161086b565b820191906000526020600020905b81548152906001019060200180831161084e57829003601f168201915b5050505050908060030160009054906101000a900460ff16905084565b6002600083815260200190815260200160002060010160009054906101000a900473ffffffffffffffffffffffffffffffffffffffff1673ffffffffffffffffffffffffffffffffffffffff163373ffffffffffffffffffffffffffffffffffffffff161461092c576040517f08c379a0000000000000000000000000000000000000000000000000000000008152600401610923906114b9565b60405180910390fd5b6000600360008481526020019081526020016000208281548110610953576109526114d9565b5b906000526020600020906004020190508060030160009054906101000a900460ff16156109b5576040517f08c379a00000000000000000000000000000000000000000000000000000000081526004016109ac90611554565b60405180910390fd5b60018160030160006101000a81548160ff0219169083151502179055508060000160009054906101000a900473ffffffffffffffffffffffffffffffffffffffff1673ffffffffffffffffffffffffffffffffffffffff166108fc60026000868152602001908152602001600020600401549081150290604051600060405180830381858888f19350505050158015610a52573d6000803e3d6000fd5b508060000160009054906101000a900473ffffffffffffffffffffffffffffffffffffffff1673ffffffffffffffffffffffffffffffffffffffff163373ffffffffffffffffffffffffffffffffffffffff16847f9b5bb8f0afed5e13581b7d6b65a134f75210a356f409e8d3be0956fc93f651236002600088815260200190815260200160002060040154604051610aeb9190610cdf565b60405180910390a4505050565b60015481565b6000604051905090565b600080fd5b600080fd5b6000819050919050565b610b2581610b12565b8114610b3057600080fd5b50565b600081359050610b4281610b1c565b92915050565b600060208284031215610b5e57610b5d610b08565b5b6000610b6c84828501610b33565b91505092915050565b610b7e81610b12565b82525050565b600073ffffffffffffffffffffffffffffffffffffffff82169050919050565b6000610baf82610b84565b9050919050565b610bbf81610ba4565b82525050565b600081519050919050565b600082825260208201905092915050565b60005b83811015610bff578082015181840152602081019050610be4565b60008484015250505050565b6000601f19601f8301169050919050565b6000610c2782610bc5565b610c318185610bd0565b9350610c41818560208601610be1565b610c4a81610c0b565b840191505092915050565b60008115159050919050565b610c6a81610c55565b82525050565b600060c082019050610c856000830189610b75565b610c926020830188610bb6565b8181036040830152610ca48187610c1c565b90508181036060830152610cb88186610c1c565b9050610cc76080830185610b75565b610cd460a0830184610c61565b979650505050505050565b6000602082019050610cf46000830184610b75565b92915050565b600080fd5b600080fd5b7f4e487b7100000000000000000000000000000000000000000000000000000000600052604160045260246000fd5b610d3c82610c0b565b810181811067ffffffffffffffff82111715610d5b57610d5a610d04565b5b80604052505050565b6000610d6e610afe565b9050610d7a8282610d33565b919050565b600067ffffffffffffffff821115610d9a57610d99610d04565b5b610da382610c0b565b9050602081019050919050565b82818337600083830152505050565b6000610dd2610dcd84610d7f565b610d64565b905082815260208101848484011115610dee57610ded610cff565b5b610df9848285610db0565b509392505050565b600082601f830112610e1657610e15610cfa565b5b8135610e26848260208601610dbf565b91505092915050565b600080600060608486031215610e4857610e47610b08565b5b600084013567ffffffffffffffff811115610e6657610e65610b0d565b5b610e7286828701610e01565b935050602084013567ffffffffffffffff811115610e9357610e92610b0d565b5b610e9f86828701610e01565b9250506040610eb086828701610b33565b9150509250925092565b60008060408385031215610ed157610ed0610b08565b5b6000610edf85828601610b33565b925050602083013567ffffffffffffffff811115610f0057610eff610b0d565b5b610f0c85828601610e01565b9150509250929050565b60008060408385031215610f2d57610f2c610b08565b5b6000610f3b85828601610b33565b9250506020610f4c85828601610b33565b9150509250929050565b6000608082019050610f6b6000830187610bb6565b610f786020830186610b75565b8181036040830152610f8a8185610c1c565b9050610f996060830184610c61565b95945050505050565b7f4e487b7100000000000000000000000000000000000000000000000000000000600052602260045260246000fd5b60006002820490506001821680610fe957607f821691505b602082108103610ffc57610ffb610fa2565b5b50919050565b7f4f6e6c7920656d706c6f7965722063616e20646561637469766174652074686560008201527f206a6f622e000000000000000000000000000000000000000000000000000000602082015250565b600061105e602583610bd0565b915061106982611002565b604082019050919050565b6000602082019050818103600083015261108d81611051565b9050919050565b7f4e487b7100000000000000000000000000000000000000000000000000000000600052601160045260246000fd5b60006110ce82610b12565b91507fffffffffffffffffffffffffffffffffffffffffffffffffffffffffffffffff8203611100576110ff611094565b5b600182019050919050565b60008190508160005260206000209050919050565b60006020601f8301049050919050565b600082821b905092915050565b60006008830261116d7fffffffffffffffffffffffffffffffffffffffffffffffffffffffffffffffff82611130565b6111778683611130565b95508019841693508086168417925050509392505050565b6000819050919050565b60006111b46111af6111aa84610b12565b61118f565b610b12565b9050919050565b6000819050919050565b6111ce83611199565b6111e26111da826111bb565b84845461113d565b825550505050565b600090565b6111f76111ea565b6112028184846111c5565b505050565b5b818110156112265761121b6000826111ef565b600181019050611208565b5050565b601f82111561126b5761123c8161110b565b61124584611120565b81016020851015611254578190505b61126861126085611120565b830182611207565b50505b505050565b600082821c905092915050565b600061128e60001984600802611270565b1980831691505092915050565b60006112a7838361127d565b9150826002028217905092915050565b6112c082610bc5565b67ffffffffffffffff8111156112d9576112d8610d04565b5b6112e38254610fd1565b6112ee82828561122a565b600060209050601f831160018114611321576000841561130f578287015190505b611319858261129b565b865550611381565b601f19841661132f8661110b565b60005b8281101561135757848901518255600182019150602085019450602081019050611332565b868310156113745784890151611370601f89168261127d565b8355505b6001600288020188555050505b505050505050565b600060408201905081810360008301526113a38185610c1c565b90506113b26020830184610b75565b9392505050565b7f4a6f62206973206e6f74206163746976652e0000000000000000000000000000600082015250565b60006113ef601283610bd0565b91506113fa826113b9565b602082019050919050565b6000602082019050818103600083015261141e816113e2565b9050919050565b6000602082019050818103600083015261143f8184610c1c565b905092915050565b7f4f6e6c7920656d706c6f7965722063616e20616363657074206170706c69636160008201527f74696f6e732e0000000000000000000000000000000000000000000000000000602082015250565b60006114a3602683610bd0565b91506114ae82611447565b604082019050919050565b600060208201905081810360008301526114d281611496565b9050919050565b7f4e487b7100000000000000000000000000000000000000000000000000000000600052603260045260246000fd5b7f4170706c69636174696f6e20616c72656164792061636365707465642e000000600082015250565b600061153e601d83610bd0565b915061154982611508565b602082019050919050565b6000602082019050818103600083015261156d81611531565b905091905056fea26469706673582212206658efed3e2d3014a5fe46cd69861620b7595a5e71b85de06d91f65fee61e48964736f6c634300081c0033",
  "linkReferences": {},
  "deployedLinkReferences": {}
}