{
  "_format": "hh-sol-artifact-1",
  "contractName": "DAOHiring",
  "sourceName": "contracts/daoHiring.sol",
  "abi": [
    {
      "anonymous": false,
      "inputs": [
        {
          "indexed": true,
          "internalType": "uint256",
          "name": "jobId",
          "type": "uint256"
        },
        {
          "indexed": true,
          "internalType": "address",
          "name": "employer",
          "type": "address"
        },
        {
          "indexed": true,
          "internalType": "address",
          "name": "applicant",
          "type": "address"
        }
      ],
      "name": "HiringDecisionMade",
      "type": "event"
    },
    {
      "anonymous": false,
      "inputs": [
        {
          "indexed": true,
          "internalType": "uint256",
          "name": "jobId",
          "type": "uint256"
        },
        {
          "indexed": true,
          "internalType": "address",
          "name": "employer",
          "type": "address"
        },
        {
          "indexed": false,
          "internalType": "string",
          "name": "title",
          "type": "string"
        }
      ],
      "name": "JobPosted",
      "type": "event"
    },
    {
      "anonymous": false,
      "inputs": [
        {
          "indexed": true,
          "internalType": "uint256",
          "name": "jobId",
          "type": "uint256"
        },
        {
          "indexed": true,
          "internalType": "address",
          "name": "voter",
          "type": "address"
        },
        {
          "indexed": true,
          "internalType": "address",
          "name": "applicant",
          "type": "address"
        }
      ],
      "name": "VoteCast",
      "type": "event"
    },
    {
      "inputs": [
        {
          "internalType": "uint256",
          "name": "jobId",
          "type": "uint256"
        }
      ],
      "name": "deactivateJob",
      "outputs": [],
      "stateMutability": "nonpayable",
      "type": "function"
    },
    {
      "inputs": [],
      "name": "jobCount",
      "outputs": [
        {
          "internalType": "uint256",
          "name": "",
          "type": "uint256"
        }
      ],
      "stateMutability": "view",
      "type": "function"
    },
    {
      "inputs": [
        {
          "internalType": "uint256",
          "name": "",
          "type": "uint256"
        }
      ],
      "name": "jobs",
      "outputs": [
        {
          "internalType": "uint256",
          "name": "id",
          "type": "uint256"
        },
        {
          "internalType": "address",
          "name": "employer",
          "type": "address"
        },
        {
          "internalType": "string",
          "name": "title",
          "type": "string"
        },
        {
          "internalType": "string",
          "name": "description",
          "type": "string"
        },
        {
          "internalType": "uint256",
          "name": "paymentAmount",
          "type": "uint256"
        },
        {
          "internalType": "bool",
          "name": "isActive",
          "type": "bool"
        }
      ],
      "stateMutability": "view",
      "type": "function"
    },
    {
      "inputs": [
        {
          "internalType": "uint256",
          "name": "jobId",
          "type": "uint256"
        },
        {
          "internalType": "address",
          "name": "applicant",
          "type": "address"
        }
      ],
      "name": "makeHiringDecision",
      "outputs": [],
      "stateMutability": "nonpayable",
      "type": "function"
    },
    {
      "inputs": [
        {
          "internalType": "string",
          "name": "title",
          "type": "string"
        },
        {
          "internalType": "string",
          "name": "description",
          "type": "string"
        },
        {
          "internalType": "uint256",
          "name": "paymentAmount",
          "type": "uint256"
        }
      ],
      "name": "postJob",
      "outputs": [],
      "stateMutability": "nonpayable",
      "type": "function"
    },
    {
      "inputs": [
        {
          "internalType": "uint256",
          "name": "jobId",
          "type": "uint256"
        },
        {
          "internalType": "address",
          "name": "applicant",
          "type": "address"
        }
      ],
      "name": "voteForApplicant",
      "outputs": [],
      "stateMutability": "nonpayable",
      "type": "function"
    }
  ],
  "bytecode": "0x608060405260008055348015601357600080fd5b50611492806100236000396000f3fe608060405234801561001057600080fd5b50600436106100625760003560e01c8063180aedf314610067578063366d2a4b1461009c5780634c5d8a0f146100b85780635c3b9c4a146100d65780639d7ac466146100f2578063e88c36341461010e575b600080fd5b610081600480360381019061007c91906109ea565b61012a565b60405161009396959493929190610b12565b60405180910390f35b6100b660048036038101906100b191906109ea565b6102a3565b005b6100c0610379565b6040516100cd9190610b81565b60405180910390f35b6100f060048036038101906100eb9190610cd1565b61037f565b005b61010c60048036038101906101079190610d88565b61049d565b005b61012860048036038101906101239190610d88565b6106e2565b005b60016020528060005260406000206000915090508060000154908060010160009054906101000a900473ffffffffffffffffffffffffffffffffffffffff169080600201805461017990610df7565b80601f01602080910402602001604051908101604052809291908181526020018280546101a590610df7565b80156101f25780601f106101c7576101008083540402835291602001916101f2565b820191906000526020600020905b8154815290600101906020018083116101d557829003601f168201915b50505050509080600301805461020790610df7565b80601f016020809104026020016040519081016040528092919081815260200182805461023390610df7565b80156102805780601f1061025557610100808354040283529160200191610280565b820191906000526020600020905b81548152906001019060200180831161026357829003601f168201915b5050505050908060040154908060050160009054906101000a900460ff16905086565b6001600082815260200190815260200160002060010160009054906101000a900473ffffffffffffffffffffffffffffffffffffffff1673ffffffffffffffffffffffffffffffffffffffff163373ffffffffffffffffffffffffffffffffffffffff1614610347576040517f08c379a000000000000000000000000000000000000000000000000000000000815260040161033e90610e9a565b60405180910390fd5b60006001600083815260200190815260200160002060050160006101000a81548160ff02191690831515021790555050565b60005481565b60008081548092919061039190610ee9565b91905055506000600160008054815260200190815260200160002090506000548160000181905550338160010160006101000a81548173ffffffffffffffffffffffffffffffffffffffff021916908373ffffffffffffffffffffffffffffffffffffffff1602179055508381600201908161040d91906110dd565b508281600301908161041f91906110dd565b5081816004018190555060018160050160006101000a81548160ff0219169083151502179055503373ffffffffffffffffffffffffffffffffffffffff166000547f874d4755e4be9f976c7833fc413deb77c1acbf096d6535b71953c36eb838cf408660405161048f91906111af565b60405180910390a350505050565b6001600083815260200190815260200160002060050160009054906101000a900460ff16610500576040517f08c379a00000000000000000000000000000000000000000000000000000000081526004016104f79061121d565b60405180910390fd5b6001600083815260200190815260200160002060070160003373ffffffffffffffffffffffffffffffffffffffff1673ffffffffffffffffffffffffffffffffffffffff16815260200190815260200160002060009054906101000a900460ff16156105a1576040517f08c379a000000000000000000000000000000000000000000000000000000000815260040161059890611289565b60405180910390fd5b600180600084815260200190815260200160002060070160003373ffffffffffffffffffffffffffffffffffffffff1673ffffffffffffffffffffffffffffffffffffffff16815260200190815260200160002060006101000a81548160ff02191690831515021790555060016000838152602001908152602001600020600601819080600181540180825580915050600190039060005260206000200160009091909190916101000a81548173ffffffffffffffffffffffffffffffffffffffff021916908373ffffffffffffffffffffffffffffffffffffffff1602179055508073ffffffffffffffffffffffffffffffffffffffff163373ffffffffffffffffffffffffffffffffffffffff16837fcfff1651bcea794952a516ce970ab17518a85210bd939aaeaac670a8d3e65ec760405160405180910390a45050565b6001600083815260200190815260200160002060010160009054906101000a900473ffffffffffffffffffffffffffffffffffffffff1673ffffffffffffffffffffffffffffffffffffffff163373ffffffffffffffffffffffffffffffffffffffff1614610786576040517f08c379a000000000000000000000000000000000000000000000000000000000815260040161077d9061131b565b60405180910390fd5b6000805b600160008581526020019081526020016000206006018054905081101561084c578273ffffffffffffffffffffffffffffffffffffffff166001600086815260200190815260200160002060060182815481106107ea576107e961133b565b5b9060005260206000200160009054906101000a900473ffffffffffffffffffffffffffffffffffffffff1673ffffffffffffffffffffffffffffffffffffffff160361083f57818061083b90610ee9565b9250505b808060010191505061078a565b50600260016000858152602001908152602001600020600601805490506108739190611399565b81116108b4576040517f08c379a00000000000000000000000000000000000000000000000000000000081526004016108ab9061143c565b60405180910390fd5b60006001600085815260200190815260200160002060050160006101000a81548160ff0219169083151502179055508173ffffffffffffffffffffffffffffffffffffffff166108fc60016000868152602001908152602001600020600401549081150290604051600060405180830381858888f1935050505015801561093f573d6000803e3d6000fd5b508173ffffffffffffffffffffffffffffffffffffffff163373ffffffffffffffffffffffffffffffffffffffff16847f36e133fc5328d27deb65fbbcbde12e0de8713f550a290971a7abe58fd4f70b4e60405160405180910390a4505050565b6000604051905090565b600080fd5b600080fd5b6000819050919050565b6109c7816109b4565b81146109d257600080fd5b50565b6000813590506109e4816109be565b92915050565b600060208284031215610a00576109ff6109aa565b5b6000610a0e848285016109d5565b91505092915050565b610a20816109b4565b82525050565b600073ffffffffffffffffffffffffffffffffffffffff82169050919050565b6000610a5182610a26565b9050919050565b610a6181610a46565b82525050565b600081519050919050565b600082825260208201905092915050565b60005b83811015610aa1578082015181840152602081019050610a86565b60008484015250505050565b6000601f19601f8301169050919050565b6000610ac982610a67565b610ad38185610a72565b9350610ae3818560208601610a83565b610aec81610aad565b840191505092915050565b60008115159050919050565b610b0c81610af7565b82525050565b600060c082019050610b276000830189610a17565b610b346020830188610a58565b8181036040830152610b468187610abe565b90508181036060830152610b5a8186610abe565b9050610b696080830185610a17565b610b7660a0830184610b03565b979650505050505050565b6000602082019050610b966000830184610a17565b92915050565b600080fd5b600080fd5b7f4e487b7100000000000000000000000000000000000000000000000000000000600052604160045260246000fd5b610bde82610aad565b810181811067ffffffffffffffff82111715610bfd57610bfc610ba6565b5b80604052505050565b6000610c106109a0565b9050610c1c8282610bd5565b919050565b600067ffffffffffffffff821115610c3c57610c3b610ba6565b5b610c4582610aad565b9050602081019050919050565b82818337600083830152505050565b6000610c74610c6f84610c21565b610c06565b905082815260208101848484011115610c9057610c8f610ba1565b5b610c9b848285610c52565b509392505050565b600082601f830112610cb857610cb7610b9c565b5b8135610cc8848260208601610c61565b91505092915050565b600080600060608486031215610cea57610ce96109aa565b5b600084013567ffffffffffffffff811115610d0857610d076109af565b5b610d1486828701610ca3565b935050602084013567ffffffffffffffff811115610d3557610d346109af565b5b610d4186828701610ca3565b9250506040610d52868287016109d5565b9150509250925092565b610d6581610a46565b8114610d7057600080fd5b50565b600081359050610d8281610d5c565b92915050565b60008060408385031215610d9f57610d9e6109aa565b5b6000610dad858286016109d5565b9250506020610dbe85828601610d73565b9150509250929050565b7f4e487b7100000000000000000000000000000000000000000000000000000000600052602260045260246000fd5b60006002820490506001821680610e0f57607f821691505b602082108103610e2257610e21610dc8565b5b50919050565b7f4f6e6c7920656d706c6f7965722063616e20646561637469766174652074686560008201527f206a6f622e000000000000000000000000000000000000000000000000000000602082015250565b6000610e84602583610a72565b9150610e8f82610e28565b604082019050919050565b60006020820190508181036000830152610eb381610e77565b9050919050565b7f4e487b7100000000000000000000000000000000000000000000000000000000600052601160045260246000fd5b6000610ef4826109b4565b91507fffffffffffffffffffffffffffffffffffffffffffffffffffffffffffffffff8203610f2657610f25610eba565b5b600182019050919050565b60008190508160005260206000209050919050565b60006020601f8301049050919050565b600082821b905092915050565b600060088302610f937fffffffffffffffffffffffffffffffffffffffffffffffffffffffffffffffff82610f56565b610f9d8683610f56565b95508019841693508086168417925050509392505050565b6000819050919050565b6000610fda610fd5610fd0846109b4565b610fb5565b6109b4565b9050919050565b6000819050919050565b610ff483610fbf565b61100861100082610fe1565b848454610f63565b825550505050565b600090565b61101d611010565b611028818484610feb565b505050565b5b8181101561104c57611041600082611015565b60018101905061102e565b5050565b601f8211156110915761106281610f31565b61106b84610f46565b8101602085101561107a578190505b61108e61108685610f46565b83018261102d565b50505b505050565b600082821c905092915050565b60006110b460001984600802611096565b1980831691505092915050565b60006110cd83836110a3565b9150826002028217905092915050565b6110e682610a67565b67ffffffffffffffff8111156110ff576110fe610ba6565b5b6111098254610df7565b611114828285611050565b600060209050601f8311600181146111475760008415611135578287015190505b61113f85826110c1565b8655506111a7565b601f19841661115586610f31565b60005b8281101561117d57848901518255600182019150602085019450602081019050611158565b8683101561119a5784890151611196601f8916826110a3565b8355505b6001600288020188555050505b505050505050565b600060208201905081810360008301526111c98184610abe565b905092915050565b7f4a6f62206973206e6f74206163746976652e0000000000000000000000000000600082015250565b6000611207601283610a72565b9150611212826111d1565b602082019050919050565b60006020820190508181036000830152611236816111fa565b9050919050565b7f596f75206861766520616c726561647920766f7465642e000000000000000000600082015250565b6000611273601783610a72565b915061127e8261123d565b602082019050919050565b600060208201905081810360008301526112a281611266565b9050919050565b7f4f6e6c7920656d706c6f7965722063616e206d616b652074686520646563697360008201527f696f6e2e00000000000000000000000000000000000000000000000000000000602082015250565b6000611305602483610a72565b9150611310826112a9565b604082019050919050565b60006020820190508181036000830152611334816112f8565b9050919050565b7f4e487b7100000000000000000000000000000000000000000000000000000000600052603260045260246000fd5b7f4e487b7100000000000000000000000000000000000000000000000000000000600052601260045260246000fd5b60006113a4826109b4565b91506113af836109b4565b9250826113bf576113be61136a565b5b828204905092915050565b7f4170706c6963616e7420646964206e6f742072656365697665206d616a6f726960008201527f747920766f7465732e0000000000000000000000000000000000000000000000602082015250565b6000611426602983610a72565b9150611431826113ca565b604082019050919050565b6000602082019050818103600083015261145581611419565b905091905056fea264697066735822122008cd6582df70443feb92e7b2d697e482aae3a3fcfd55fa1751d8df6a5649543f64736f6c634300081c0033",
  "linkReferences": {},
  "deployedLinkReferences": {}
}