{
  "_format": "hh-sol-artifact-1",
  "contractName": "DAOHiring",
  "sourceName": "contracts/daoHiring.sol",
  "abi": [
    {
      "anonymous": false,
      "inputs": [
        {
          "indexed": true,
          "internalType": "uint256",
          "name": "jobId",
          "type": "uint256"
        },
        {
          "indexed": true,
          "internalType": "address",
          "name": "employer",
          "type": "address"
        },
        {
          "indexed": true,
          "internalType": "address",
          "name": "applicant",
          "type": "address"
        }
      ],
      "name": "HiringDecisionMade",
      "type": "event"
    },
    {
      "anonymous": false,
      "inputs": [
        {
          "indexed": true,
          "internalType": "uint256",
          "name": "jobId",
          "type": "uint256"
        },
        {
          "indexed": true,
          "internalType": "address",
          "name": "employer",
          "type": "address"
        },
        {
          "indexed": false,
          "internalType": "string",
          "name": "title",
          "type": "string"
        }
      ],
      "name": "JobPosted",
      "type": "event"
    },
    {
      "anonymous": false,
      "inputs": [
        {
          "indexed": true,
          "internalType": "uint256",
          "name": "jobId",
          "type": "uint256"
        },
        {
          "indexed": true,
          "internalType": "address",
          "name": "voter",
          "type": "address"
        },
        {
          "indexed": true,
          "internalType": "address",
          "name": "applicant",
          "type": "address"
        }
      ],
      "name": "VoteCast",
      "type": "event"
    },
    {
      "inputs": [
        {
          "internalType": "uint256",
          "name": "jobId",
          "type": "uint256"
        }
      ],
      "name": "deactivateJob",
      "outputs": [],
      "stateMutability": "nonpayable",
      "type": "function"
    },
    {
      "inputs": [],
      "name": "jobCount",
      "outputs": [
        {
          "internalType": "uint256",
          "name": "",
          "type": "uint256"
        }
      ],
      "stateMutability": "view",
      "type": "function"
    },
    {
      "inputs": [
        {
          "internalType": "uint256",
          "name": "",
          "type": "uint256"
        }
      ],
      "name": "jobs",
      "outputs": [
        {
          "internalType": "uint256",
          "name": "id",
          "type": "uint256"
        },
        {
          "internalType": "address",
          "name": "employer",
          "type": "address"
        },
        {
          "internalType": "string",
          "name": "title",
          "type": "string"
        },
        {
          "internalType": "string",
          "name": "description",
          "type": "string"
        },
        {
          "internalType": "uint256",
          "name": "paymentAmount",
          "type": "uint256"
        },
        {
          "internalType": "bool",
          "name": "isActive",
          "type": "bool"
        }
      ],
      "stateMutability": "view",
      "type": "function"
    },
    {
      "inputs": [
        {
          "internalType": "uint256",
          "name": "jobId",
          "type": "uint256"
        },
        {
          "internalType": "address",
          "name": "applicant",
          "type": "address"
        }
      ],
      "name": "makeHiringDecision",
      "outputs": [],
      "stateMutability": "nonpayable",
      "type": "function"
    },
    {
      "inputs": [
        {
          "internalType": "string",
          "name": "title",
          "type": "string"
        },
        {
          "internalType": "string",
          "name": "description",
          "type": "string"
        },
        {
          "internalType": "uint256",
          "name": "paymentAmount",
          "type": "uint256"
        }
      ],
      "name": "postJob",
      "outputs": [],
      "stateMutability": "nonpayable",
      "type": "function"
    },
    {
      "inputs": [
        {
          "internalType": "uint256",
          "name": "jobId",
          "type": "uint256"
        },
        {
          "internalType": "address",
          "name": "applicant",
          "type": "address"
        }
      ],
      "name": "voteForApplicant",
      "outputs": [],
      "stateMutability": "nonpayable",
      "type": "function"
    }
  ],
  "bytecode": "0x608060405260008055348015601357600080fd5b50611163806100236000396000f3fe608060405234801561001057600080fd5b50600436106100625760003560e01c8063180aedf314610067578063366d2a4b1461009c5780634c5d8a0f146100b85780635c3b9c4a146100d65780639d7ac466146100f2578063e88c36341461010e575b600080fd5b610081600480360381019061007c9190610939565b61012a565b60405161009396959493929190610a61565b60405180910390f35b6100b660048036038101906100b19190610939565b6102a3565b005b6100c0610379565b6040516100cd9190610ad0565b60405180910390f35b6100f060048036038101906100eb9190610c20565b61037f565b005b61010c60048036038101906101079190610cd7565b6103ec565b005b61012860048036038101906101239190610cd7565b610631565b005b60016020528060005260406000206000915090508060000154908060010160009054906101000a900473ffffffffffffffffffffffffffffffffffffffff169080600201805461017990610d46565b80601f01602080910402602001604051908101604052809291908181526020018280546101a590610d46565b80156101f25780601f106101c7576101008083540402835291602001916101f2565b820191906000526020600020905b8154815290600101906020018083116101d557829003601f168201915b50505050509080600301805461020790610d46565b80601f016020809104026020016040519081016040528092919081815260200182805461023390610d46565b80156102805780601f1061025557610100808354040283529160200191610280565b820191906000526020600020905b81548152906001019060200180831161026357829003601f168201915b5050505050908060040154908060050160009054906101000a900460ff16905086565b6001600082815260200190815260200160002060010160009054906101000a900473ffffffffffffffffffffffffffffffffffffffff1673ffffffffffffffffffffffffffffffffffffffff163373ffffffffffffffffffffffffffffffffffffffff1614610347576040517f08c379a000000000000000000000000000000000000000000000000000000000815260040161033e90610de9565b60405180910390fd5b60006001600083815260200190815260200160002060050160006101000a81548160ff02191690831515021790555050565b60005481565b60008081548092919061039190610e38565b91905055503373ffffffffffffffffffffffffffffffffffffffff166000547f874d4755e4be9f976c7833fc413deb77c1acbf096d6535b71953c36eb838cf40856040516103df9190610e80565b60405180910390a3505050565b6001600083815260200190815260200160002060050160009054906101000a900460ff1661044f576040517f08c379a000000000000000000000000000000000000000000000000000000000815260040161044690610eee565b60405180910390fd5b6001600083815260200190815260200160002060070160003373ffffffffffffffffffffffffffffffffffffffff1673ffffffffffffffffffffffffffffffffffffffff16815260200190815260200160002060009054906101000a900460ff16156104f0576040517f08c379a00000000000000000000000000000000000000000000000000000000081526004016104e790610f5a565b60405180910390fd5b600180600084815260200190815260200160002060070160003373ffffffffffffffffffffffffffffffffffffffff1673ffffffffffffffffffffffffffffffffffffffff16815260200190815260200160002060006101000a81548160ff02191690831515021790555060016000838152602001908152602001600020600601819080600181540180825580915050600190039060005260206000200160009091909190916101000a81548173ffffffffffffffffffffffffffffffffffffffff021916908373ffffffffffffffffffffffffffffffffffffffff1602179055508073ffffffffffffffffffffffffffffffffffffffff163373ffffffffffffffffffffffffffffffffffffffff16837fcfff1651bcea794952a516ce970ab17518a85210bd939aaeaac670a8d3e65ec760405160405180910390a45050565b6001600083815260200190815260200160002060010160009054906101000a900473ffffffffffffffffffffffffffffffffffffffff1673ffffffffffffffffffffffffffffffffffffffff163373ffffffffffffffffffffffffffffffffffffffff16146106d5576040517f08c379a00000000000000000000000000000000000000000000000000000000081526004016106cc90610fec565b60405180910390fd5b6000805b600160008581526020019081526020016000206006018054905081101561079b578273ffffffffffffffffffffffffffffffffffffffff166001600086815260200190815260200160002060060182815481106107395761073861100c565b5b9060005260206000200160009054906101000a900473ffffffffffffffffffffffffffffffffffffffff1673ffffffffffffffffffffffffffffffffffffffff160361078e57818061078a90610e38565b9250505b80806001019150506106d9565b50600260016000858152602001908152602001600020600601805490506107c2919061106a565b8111610803576040517f08c379a00000000000000000000000000000000000000000000000000000000081526004016107fa9061110d565b60405180910390fd5b60006001600085815260200190815260200160002060050160006101000a81548160ff0219169083151502179055508173ffffffffffffffffffffffffffffffffffffffff166108fc60016000868152602001908152602001600020600401549081150290604051600060405180830381858888f1935050505015801561088e573d6000803e3d6000fd5b508173ffffffffffffffffffffffffffffffffffffffff163373ffffffffffffffffffffffffffffffffffffffff16847f36e133fc5328d27deb65fbbcbde12e0de8713f550a290971a7abe58fd4f70b4e60405160405180910390a4505050565b6000604051905090565b600080fd5b600080fd5b6000819050919050565b61091681610903565b811461092157600080fd5b50565b6000813590506109338161090d565b92915050565b60006020828403121561094f5761094e6108f9565b5b600061095d84828501610924565b91505092915050565b61096f81610903565b82525050565b600073ffffffffffffffffffffffffffffffffffffffff82169050919050565b60006109a082610975565b9050919050565b6109b081610995565b82525050565b600081519050919050565b600082825260208201905092915050565b60005b838110156109f05780820151818401526020810190506109d5565b60008484015250505050565b6000601f19601f8301169050919050565b6000610a18826109b6565b610a2281856109c1565b9350610a328185602086016109d2565b610a3b816109fc565b840191505092915050565b60008115159050919050565b610a5b81610a46565b82525050565b600060c082019050610a766000830189610966565b610a8360208301886109a7565b8181036040830152610a958187610a0d565b90508181036060830152610aa98186610a0d565b9050610ab86080830185610966565b610ac560a0830184610a52565b979650505050505050565b6000602082019050610ae56000830184610966565b92915050565b600080fd5b600080fd5b7f4e487b7100000000000000000000000000000000000000000000000000000000600052604160045260246000fd5b610b2d826109fc565b810181811067ffffffffffffffff82111715610b4c57610b4b610af5565b5b80604052505050565b6000610b5f6108ef565b9050610b6b8282610b24565b919050565b600067ffffffffffffffff821115610b8b57610b8a610af5565b5b610b94826109fc565b9050602081019050919050565b82818337600083830152505050565b6000610bc3610bbe84610b70565b610b55565b905082815260208101848484011115610bdf57610bde610af0565b5b610bea848285610ba1565b509392505050565b600082601f830112610c0757610c06610aeb565b5b8135610c17848260208601610bb0565b91505092915050565b600080600060608486031215610c3957610c386108f9565b5b600084013567ffffffffffffffff811115610c5757610c566108fe565b5b610c6386828701610bf2565b935050602084013567ffffffffffffffff811115610c8457610c836108fe565b5b610c9086828701610bf2565b9250506040610ca186828701610924565b9150509250925092565b610cb481610995565b8114610cbf57600080fd5b50565b600081359050610cd181610cab565b92915050565b60008060408385031215610cee57610ced6108f9565b5b6000610cfc85828601610924565b9250506020610d0d85828601610cc2565b9150509250929050565b7f4e487b7100000000000000000000000000000000000000000000000000000000600052602260045260246000fd5b60006002820490506001821680610d5e57607f821691505b602082108103610d7157610d70610d17565b5b50919050565b7f4f6e6c7920656d706c6f7965722063616e20646561637469766174652074686560008201527f206a6f622e000000000000000000000000000000000000000000000000000000602082015250565b6000610dd36025836109c1565b9150610dde82610d77565b604082019050919050565b60006020820190508181036000830152610e0281610dc6565b9050919050565b7f4e487b7100000000000000000000000000000000000000000000000000000000600052601160045260246000fd5b6000610e4382610903565b91507fffffffffffffffffffffffffffffffffffffffffffffffffffffffffffffffff8203610e7557610e74610e09565b5b600182019050919050565b60006020820190508181036000830152610e9a8184610a0d565b905092915050565b7f4a6f62206973206e6f74206163746976652e0000000000000000000000000000600082015250565b6000610ed86012836109c1565b9150610ee382610ea2565b602082019050919050565b60006020820190508181036000830152610f0781610ecb565b9050919050565b7f596f75206861766520616c726561647920766f7465642e000000000000000000600082015250565b6000610f446017836109c1565b9150610f4f82610f0e565b602082019050919050565b60006020820190508181036000830152610f7381610f37565b9050919050565b7f4f6e6c7920656d706c6f7965722063616e206d616b652074686520646563697360008201527f696f6e2e00000000000000000000000000000000000000000000000000000000602082015250565b6000610fd66024836109c1565b9150610fe182610f7a565b604082019050919050565b6000602082019050818103600083015261100581610fc9565b9050919050565b7f4e487b7100000000000000000000000000000000000000000000000000000000600052603260045260246000fd5b7f4e487b7100000000000000000000000000000000000000000000000000000000600052601260045260246000fd5b600061107582610903565b915061108083610903565b9250826110905761108f61103b565b5b828204905092915050565b7f4170706c6963616e7420646964206e6f742072656365697665206d616a6f726960008201527f747920766f7465732e0000000000000000000000000000000000000000000000602082015250565b60006110f76029836109c1565b91506111028261109b565b604082019050919050565b60006020820190508181036000830152611126816110ea565b905091905056fea2646970667358221220e461b60f376245d2d58c68d87b2b5b55488f3f363a748bdb6d1bea3ada8606b264736f6c634300081c0033",
  "linkReferences": {},
  "deployedLinkReferences": {}
}